{
  "contractName": "MyContract",
  "abi": [
    {
      "inputs": [],
      "payable": true,
      "stateMutability": "payable",
      "type": "constructor"
    },
    {
      "anonymous": false,
      "inputs": [
        {
          "indexed": false,
          "internalType": "string",
          "name": "",
          "type": "string"
        }
      ],
      "name": "Reviewstored",
      "type": "event"
    },
    {
      "constant": true,
      "inputs": [
        {
          "internalType": "uint256",
          "name": "",
          "type": "uint256"
        }
      ],
      "name": "products",
      "outputs": [
        {
          "internalType": "string",
          "name": "",
          "type": "string"
        }
      ],
      "payable": false,
      "stateMutability": "view",
      "type": "function"
    },
    {
      "constant": false,
      "inputs": [
        {
          "internalType": "uint8",
          "name": "_length",
          "type": "uint8"
        }
      ],
      "name": "change_ipfs_length",
      "outputs": [],
      "payable": false,
      "stateMutability": "nonpayable",
      "type": "function"
    },
    {
      "constant": true,
      "inputs": [
        {
          "internalType": "string",
          "name": "name",
          "type": "string"
        }
      ],
      "name": "getProductHash",
      "outputs": [
        {
          "internalType": "string",
          "name": "",
          "type": "string"
        }
      ],
      "payable": false,
      "stateMutability": "view",
      "type": "function"
    },
    {
      "constant": true,
      "inputs": [],
      "name": "getBalance",
      "outputs": [
        {
          "internalType": "uint256",
          "name": "",
          "type": "uint256"
        }
      ],
      "payable": false,
      "stateMutability": "view",
      "type": "function"
    },
    {
      "constant": true,
      "inputs": [],
      "name": "getProductLength",
      "outputs": [
        {
          "internalType": "uint256",
          "name": "",
          "type": "uint256"
        }
      ],
      "payable": false,
      "stateMutability": "view",
      "type": "function"
    },
    {
      "constant": true,
      "inputs": [],
      "name": "getUserProfile",
      "outputs": [
        {
          "internalType": "string",
          "name": "",
          "type": "string"
        }
      ],
      "payable": false,
      "stateMutability": "view",
      "type": "function"
    },
    {
      "constant": false,
      "inputs": [
        {
          "internalType": "string",
          "name": "userDetailFileHash",
          "type": "string"
        }
      ],
      "name": "setUserProfile",
      "outputs": [],
      "payable": false,
      "stateMutability": "nonpayable",
      "type": "function"
    },
    {
      "constant": false,
      "inputs": [
        {
          "internalType": "uint256",
          "name": "value",
          "type": "uint256"
        }
      ],
      "name": "setBalanceRequiredForProductOwner",
      "outputs": [],
      "payable": false,
      "stateMutability": "nonpayable",
      "type": "function"
    },
    {
      "constant": false,
      "inputs": [
        {
          "internalType": "uint256",
          "name": "value",
          "type": "uint256"
        }
      ],
      "name": "setBalanceRequiredForReviewr",
      "outputs": [],
      "payable": false,
      "stateMutability": "nonpayable",
      "type": "function"
    },
    {
      "constant": false,
      "inputs": [
        {
          "internalType": "uint8",
          "name": "value",
          "type": "uint8"
        }
      ],
      "name": "setPointsPerReview",
      "outputs": [],
      "payable": false,
      "stateMutability": "nonpayable",
      "type": "function"
    },
    {
      "constant": true,
      "inputs": [],
      "name": "getBalanceRequiredForProductOwner",
      "outputs": [
        {
          "internalType": "uint256",
          "name": "",
          "type": "uint256"
        }
      ],
      "payable": false,
      "stateMutability": "view",
      "type": "function"
    },
    {
      "constant": true,
      "inputs": [],
      "name": "getBalanceRequiredForReviewr",
      "outputs": [
        {
          "internalType": "uint256",
          "name": "",
          "type": "uint256"
        }
      ],
      "payable": false,
      "stateMutability": "view",
      "type": "function"
    },
    {
      "constant": true,
      "inputs": [],
      "name": "getPointsPerReview",
      "outputs": [
        {
          "internalType": "uint256",
          "name": "",
          "type": "uint256"
        }
      ],
      "payable": false,
      "stateMutability": "view",
      "type": "function"
    },
    {
      "constant": true,
      "inputs": [],
      "name": "getProducts",
      "outputs": [
        {
          "internalType": "bytes1[46][]",
          "name": "",
          "type": "bytes1[46][]"
        }
      ],
      "payable": false,
      "stateMutability": "view",
      "type": "function"
    },
    {
      "constant": false,
      "inputs": [
        {
          "internalType": "string",
          "name": "_product_name",
          "type": "string"
        },
        {
          "internalType": "string",
          "name": "_ipfs_hash",
          "type": "string"
        }
      ],
      "name": "addProduct",
      "outputs": [],
      "payable": true,
      "stateMutability": "payable",
      "type": "function"
    },
    {
      "constant": false,
      "inputs": [
        {
          "internalType": "string",
          "name": "ipfs_hash",
          "type": "string"
        }
      ],
      "name": "deleteProduct",
      "outputs": [],
      "payable": false,
      "stateMutability": "nonpayable",
      "type": "function"
    },
    {
      "constant": true,
      "inputs": [
        {
          "internalType": "string",
          "name": "_product_name",
          "type": "string"
        }
      ],
      "name": "checkIfAlreadyReviewed",
      "outputs": [
        {
          "internalType": "bool",
          "name": "",
          "type": "bool"
        }
      ],
      "payable": false,
      "stateMutability": "view",
      "type": "function"
    },
    {
      "constant": false,
      "inputs": [
        {
          "internalType": "string",
          "name": "_product_name",
          "type": "string"
        },
        {
          "internalType": "string",
          "name": "_reviewFile_hash",
          "type": "string"
        },
        {
          "internalType": "string",
          "name": "_review_hash",
          "type": "string"
        },
        {
          "internalType": "uint256",
          "name": "_rating",
          "type": "uint256"
        }
      ],
      "name": "addReview",
      "outputs": [],
      "payable": false,
      "stateMutability": "nonpayable",
      "type": "function"
    },
    {
      "constant": true,
      "inputs": [
        {
          "internalType": "string",
          "name": "_product_name",
          "type": "string"
        }
      ],
      "name": "getProductReviewFile",
      "outputs": [
        {
          "internalType": "string",
          "name": "",
          "type": "string"
        },
        {
          "internalType": "uint256",
          "name": "",
          "type": "uint256"
        }
      ],
      "payable": false,
      "stateMutability": "view",
      "type": "function"
    },
    {
      "constant": true,
      "inputs": [
        {
          "internalType": "string",
          "name": "_product_name",
          "type": "string"
        }
      ],
      "name": "getAllTheReviewsForProduct",
      "outputs": [
        {
          "internalType": "bytes1[46][]",
          "name": "",
          "type": "bytes1[46][]"
        },
        {
          "internalType": "address[]",
          "name": "",
          "type": "address[]"
        }
      ],
      "payable": false,
      "stateMutability": "view",
      "type": "function"
    },
    {
      "constant": false,
      "inputs": [],
      "name": "redeemPrice",
      "outputs": [
        {
          "internalType": "string",
          "name": "",
          "type": "string"
        }
      ],
      "payable": false,
      "stateMutability": "nonpayable",
      "type": "function"
    }
  ],
  "bytecode": "0x6080604052602e60075533600360006101000a81548173ffffffffffffffffffffffffffffffffffffffff021916908373ffffffffffffffffffffffffffffffffffffffff1602179055506128cf806100596000396000f3fe6080604052600436106101285760003560e01c80636f61c744116100ab578063c29b2f201161006f578063c29b2f2014610a5a578063ca2efb5514610ae7578063d563f05f14610c39578063f2d6181914610c74578063f5a2cd8c14610c9f578063fd0bce0714610de757610128565b80636f61c7441461079357806372139d9a146108235780637a233fb3146108eb5780637acc0b201461097b5780639dc1c11414610a2f57610128565b8063360d5c1c116100f2578063360d5c1c146103ff5780633cf35bb21461042a5780634c2306bc146105b05780636401c30c14610690578063654c32de1461075857610128565b8062f63ce21461012d578062ff35c51461015857806312065fe01461019657806314518e19146101c157806314a1a4d2146103c1575b600080fd5b34801561013957600080fd5b50610142610f28565b6040518082815260200191505060405180910390f35b34801561016457600080fd5b506101946004803603602081101561017b57600080fd5b81019080803560ff169060200190929190505050610f42565b005b3480156101a257600080fd5b506101ab610f4f565b6040518082815260200191505060405180910390f35b3480156101cd57600080fd5b506103bf600480360360808110156101e457600080fd5b810190808035906020019064010000000081111561020157600080fd5b82018360208201111561021357600080fd5b8035906020019184600183028401116401000000008311171561023557600080fd5b91908080601f016020809104026020016040519081016040528093929190818152602001838380828437600081840152601f19601f8201169050808301925050505050505091929192908035906020019064010000000081111561029857600080fd5b8201836020820111156102aa57600080fd5b803590602001918460018302840111640100000000831117156102cc57600080fd5b91908080601f016020809104026020016040519081016040528093929190818152602001838380828437600081840152601f19601f8201169050808301925050505050505091929192908035906020019064010000000081111561032f57600080fd5b82018360208201111561034157600080fd5b8035906020019184600183028401116401000000008311171561036357600080fd5b91908080601f016020809104026020016040519081016040528093929190818152602001838380828437600081840152601f19601f82011690508083019250505050505050919291929080359060200190929190505050610f57565b005b3480156103cd57600080fd5b506103fd600480360360208110156103e457600080fd5b81019080803560ff169060200190929190505050611557565b005b34801561040b57600080fd5b50610414611575565b6040518082815260200191505060405180910390f35b34801561043657600080fd5b506104f06004803603602081101561044d57600080fd5b810190808035906020019064010000000081111561046a57600080fd5b82018360208201111561047c57600080fd5b8035906020019184600183028401116401000000008311171561049e57600080fd5b91908080601f016020809104026020016040519081016040528093929190818152602001838380828437600081840152601f19601f82011690508083019250505050505050919291929050505061157f565b6040518080602001806020018381038352858181518152602001915080516000925b8184101561055b5782846020026020010151602e60200280838360005b8381101561054a57808201518184015260208101905061052f565b505050509050019260010192610512565b92505050838103825284818151815260200191508051906020019060200280838360005b8381101561059a57808201518184015260208101905061057f565b5050505090500194505050505060405180910390f35b3480156105bc57600080fd5b50610676600480360360208110156105d357600080fd5b81019080803590602001906401000000008111156105f057600080fd5b82018360208201111561060257600080fd5b8035906020019184600183028401116401000000008311171561062457600080fd5b91908080601f016020809104026020016040519081016040528093929190818152602001838380828437600081840152601f19601f82011690508083019250505050505050919291929050505061194f565b604051808215151515815260200191505060405180910390f35b34801561069c57600080fd5b50610756600480360360208110156106b357600080fd5b81019080803590602001906401000000008111156106d057600080fd5b8201836020820111156106e257600080fd5b8035906020019184600183028401116401000000008311171561070457600080fd5b91908080601f016020809104026020016040519081016040528093929190818152602001838380828437600081840152601f19601f820116905080830192505050505050509192919290505050611ade565b005b34801561076457600080fd5b506107916004803603602081101561077b57600080fd5b8101908080359060200190929190505050611b35565b005b34801561079f57600080fd5b506107a8611b3f565b6040518080602001828103825283818151815260200191508051906020019080838360005b838110156107e85780820151818401526020810190506107cd565b50505050905090810190601f1680156108155780820380516001836020036101000a031916815260200191505b509250505060405180910390f35b34801561082f57600080fd5b506108e96004803603602081101561084657600080fd5b810190808035906020019064010000000081111561086357600080fd5b82018360208201111561087557600080fd5b8035906020019184600183028401116401000000008311171561089757600080fd5b91908080601f016020809104026020016040519081016040528093929190818152602001838380828437600081840152601f19601f820116905080830192505050505050509192919290505050611c1e565b005b3480156108f757600080fd5b50610900611dab565b6040518080602001828103825283818151815260200191508051906020019080838360005b83811015610940578082015181840152602081019050610925565b50505050905090810190601f16801561096d5780820380516001836020036101000a031916815260200191505b509250505060405180910390f35b34801561098757600080fd5b506109b46004803603602081101561099e57600080fd5b8101908080359060200190929190505050611eec565b6040518080602001828103825283818151815260200191508051906020019080838360005b838110156109f45780820151818401526020810190506109d9565b50505050905090810190601f168015610a215780820380516001836020036101000a031916815260200191505b509250505060405180910390f35b348015610a3b57600080fd5b50610a44611fa5565b6040518082815260200191505060405180910390f35b348015610a6657600080fd5b50610a6f611faf565b60405180806020018281038252838181518152602001915080516000925b81841015610ad65782846020026020010151602e60200280838360005b83811015610ac5578082015181840152602081019050610aaa565b505050509050019260010192610a8d565b925050509250505060405180910390f35b610c3760048036036040811015610afd57600080fd5b8101908080359060200190640100000000811115610b1a57600080fd5b820183602082011115610b2c57600080fd5b80359060200191846001830284011164010000000083111715610b4e57600080fd5b91908080601f016020809104026020016040519081016040528093929190818152602001838380828437600081840152601f19601f82011690508083019250505050505050919291929080359060200190640100000000811115610bb157600080fd5b820183602082011115610bc357600080fd5b80359060200191846001830284011164010000000083111715610be557600080fd5b91908080601f016020809104026020016040519081016040528093929190818152602001838380828437600081840152601f19601f8201169050808301925050505050505091929192905050506121f2565b005b348015610c4557600080fd5b50610c7260048036036020811015610c5c57600080fd5b81019080803590602001909291905050506123a3565b005b348015610c8057600080fd5b50610c896123ad565b6040518082815260200191505060405180910390f35b348015610cab57600080fd5b50610d6560048036036020811015610cc257600080fd5b8101908080359060200190640100000000811115610cdf57600080fd5b820183602082011115610cf157600080fd5b80359060200191846001830284011164010000000083111715610d1357600080fd5b91908080601f016020809104026020016040519081016040528093929190818152602001838380828437600081840152601f19601f8201169050808301925050505050505091929192905050506123b9565b6040518080602001838152602001828103825284818151815260200191508051906020019080838360005b83811015610dab578082015181840152602081019050610d90565b50505050905090810190601f168015610dd85780820380516001836020036101000a031916815260200191505b50935050505060405180910390f35b348015610df357600080fd5b50610ead60048036036020811015610e0a57600080fd5b8101908080359060200190640100000000811115610e2757600080fd5b820183602082011115610e3957600080fd5b80359060200191846001830284011164010000000083111715610e5b57600080fd5b91908080601f016020809104026020016040519081016040528093929190818152602001838380828437600081840152601f19601f82011690508083019250505050505050919291929050505061253b565b6040518080602001828103825283818151815260200191508051906020019080838360005b83811015610eed578082015181840152602081019050610ed2565b50505050905090810190601f168015610f1a5780820380516001836020036101000a031916815260200191505b509250505060405180910390f35b6000600b60009054906101000a900460ff1660ff16905090565b8060ff1660078190555050565b600047905090565b600754825114610fcf576040517f08c379a00000000000000000000000000000000000000000000000000000000081526004018080602001828103825260168152602001807f496e76616c69642068617368206f66207265766965770000000000000000000081525060200191505060405180910390fd5b600754835114611047576040517f08c379a000000000000000000000000000000000000000000000000000000000815260040180806020018281038252601a8152602001807f496e76616c69642068617368206f662072657669657766696c6500000000000081525060200191505060405180910390fd5b60006002856040518082805190602001908083835b6020831061107f578051825260208201915060208101905060208303925061105c565b6001836020036101000a03801982511681845116808217855250505050505090500191505090815260200160405180910390208054600181600116156101000203166002900490501161113a576040517f08c379a000000000000000000000000000000000000000000000000000000000815260040180806020018281038252601b8152602001807f546869732070726f6475637420646f6573206e6f74206578697374000000000081525060200191505060405180910390fd5b60006004856040518082805190602001908083835b60208310611172578051825260208201915060208101905060208303925061114f565b6001836020036101000a038019825116818451168082178552505050505050905001915050908152602001604051809103902060000154905060006005866040518082805190602001908083835b602083106111e357805182526020820191506020810190506020830392506111c0565b6001836020036101000a038019825116818451168082178552505050505050905001915050908152602001604051809103902080549050905060006001820184838502018161122e57fe5b049050611239612646565b6040518060400160405280838152602001888152509050806004896040518082805190602001908083835b602083106112875780518252602082019150602081019050602083039250611264565b6001836020036101000a03801982511681845116808217855250505050505090500191505090815260200160405180910390206000820151816000015560208201518160010190805190602001906112e0929190612660565b509050506005886040518082805190602001908083835b6020831061131a57805182526020820191506020810190506020830392506112f7565b6001836020036101000a038019825116818451168082178552505050505050905001915050908152602001604051809103902060405180604001604052803373ffffffffffffffffffffffffffffffffffffffff168152602001888152509080600181540180825580915050906001820390600052602060002090600202016000909192909190915060008201518160000160006101000a81548173ffffffffffffffffffffffffffffffffffffffff021916908373ffffffffffffffffffffffffffffffffffffffff1602179055506020820151816001019080519060200190611406929190612660565b50505050600b60009054906101000a900460ff1660ff16600860003373ffffffffffffffffffffffffffffffffffffffff1673ffffffffffffffffffffffffffffffffffffffff16815260200190815260200160002060008282540192505081905550600660003373ffffffffffffffffffffffffffffffffffffffff1673ffffffffffffffffffffffffffffffffffffffff1681526020019081526020016000208890806001815401808255809150509060018203906000526020600020016000909192909190915090805190602001906114e39291906126e0565b50507f400a3c026abff6f11f172c1b3358732ecff69730d7bf75ab5713feba40ea333460405180806020018281038252600d8152602001807f5265766965772073746f7265640000000000000000000000000000000000000081525060200191505060405180910390a15050505050505050565b80600b60006101000a81548160ff021916908360ff16021790555050565b6000600a54905090565b60608060006005846040518082805190602001908083835b602083106115ba5780518252602082019150602081019050602083039250611597565b6001836020036101000a038019825116818451168082178552505050505050905001915050908152602001604051809103902080549050905060608160405190808252806020026020018201604052801561162f57816020015b61161c612760565b8152602001906001900390816116145790505b5090506060826040519080825280602002602001820160405280156116635781602001602082028038833980820191505090505b50905060008090505b838110156119405761167c612783565b60606005896040518082805190602001908083835b602083106116b45780518252602082019150602081019050602083039250611691565b6001836020036101000a038019825116818451168082178552505050505050905001915050908152602001604051809103902083815481106116f257fe5b90600052602060002090600202016001018054600181600116156101000203166002900480601f0160208091040260200160405190810160405280929190818152602001828054600181600116156101000203166002900480156117975780601f1061176c57610100808354040283529160200191611797565b820191906000526020600020905b81548152906001019060200180831161177a57829003601f168201915b505050505090506005896040518082805190602001908083835b602083106117d457805182526020820191506020810190506020830392506117b1565b6001836020036101000a0380198251168184511680821785525050505050509050019150509081526020016040518091039020838154811061181257fe5b906000526020600020906002020160000160009054906101000a900473ffffffffffffffffffffffffffffffffffffffff1684848151811061185057fe5b602002602001019073ffffffffffffffffffffffffffffffffffffffff16908173ffffffffffffffffffffffffffffffffffffffff168152505060008090505b602e811015611918578181815181106118a557fe5b602001015160f81c60f81b8382602e81106118bc57fe5b60200201907effffffffffffffffffffffffffffffffffffffffffffffffffffffffffffff191690817effffffffffffffffffffffffffffffffffffffffffffffffffffffffffffff1916815250508080600101915050611890565b508185848151811061192657fe5b60200260200101819052505050808060010191505061166c565b50818194509450505050915091565b60006060600660003373ffffffffffffffffffffffffffffffffffffffff1673ffffffffffffffffffffffffffffffffffffffff168152602001908152602001600020805480602002602001604051908101604052809291908181526020016000905b82821015611a6e578382906000526020600020018054600181600116156101000203166002900480601f016020809104026020016040519081016040528092919081815260200182805460018160011615610100020316600290048015611a5a5780601f10611a2f57610100808354040283529160200191611a5a565b820191906000526020600020905b815481529060010190602001808311611a3d57829003601f168201915b5050505050815260200190600101906119b2565b505050509050606083905060008090505b8251811015611ad1576060838281518110611a9657fe5b60200260200101519050828051906020012081805190602001201415611ac3576001945050505050611ad9565b508080600101915050611a7f565b506000925050505b919050565b80600160003373ffffffffffffffffffffffffffffffffffffffff1673ffffffffffffffffffffffffffffffffffffffff1681526020019081526020016000209080519060200190611b319291906126e0565b5050565b8060098190555050565b6060600160003373ffffffffffffffffffffffffffffffffffffffff1673ffffffffffffffffffffffffffffffffffffffff1681526020019081526020016000208054600181600116156101000203166002900480601f016020809104026020016040519081016040528092919081815260200182805460018160011615610100020316600290048015611c145780601f10611be957610100808354040283529160200191611c14565b820191906000526020600020905b815481529060010190602001808311611bf757829003601f168201915b5050505050905090565b600360009054906101000a900473ffffffffffffffffffffffffffffffffffffffff1673ffffffffffffffffffffffffffffffffffffffff163373ffffffffffffffffffffffffffffffffffffffff1614611c7857600080fd5b60008090505b600080549050811015611da757818051906020012060008281548110611ca057fe5b906000526020600020016040518082805460018160011615610100020316600290048015611d055780601f10611ce3576101008083540402835291820191611d05565b820191906000526020600020905b815481529060010190602001808311611cf1575b505091505060405180910390201415611d9a57600060016000805490500381548110611d2d57fe5b9060005260206000200160008281548110611d4457fe5b906000526020600020019080546001816001161561010002031660029004611d6d9291906127a6565b50600060016000805490500381548110611d8357fe5b906000526020600020016000611d99919061282d565b5b8080600101915050611c7e565b5050565b60606064600860003373ffffffffffffffffffffffffffffffffffffffff1673ffffffffffffffffffffffffffffffffffffffff168152602001908152602001600020541015611e63576040517f08c379a00000000000000000000000000000000000000000000000000000000081526004018080602001828103825260128152602001807f496e73756666696369656e742066756e6473000000000000000000000000000081525060200191505060405180910390fd5b6064600860003373ffffffffffffffffffffffffffffffffffffffff1673ffffffffffffffffffffffffffffffffffffffff168152602001908152602001600020600082825403925050819055506040518060400160405280600d81526020017f4120636f7570656e20636f646500000000000000000000000000000000000000815250905090565b60008181548110611ef957fe5b906000526020600020016000915090508054600181600116156101000203166002900480601f016020809104026020016040519081016040528092919081815260200182805460018160011615610100020316600290048015611f9d5780601f10611f7257610100808354040283529160200191611f9d565b820191906000526020600020905b815481529060010190602001808311611f8057829003601f168201915b505050505081565b6000600954905090565b6060600080805490509050606081604051908082528060200260200182016040528015611ff657816020015b611fe3612760565b815260200190600190039081611fdb5790505b50905060008090505b828110156121e95761200f612783565b606060026000848154811061202057fe5b9060005260206000200160405180828054600181600116156101000203166002900480156120855780601f10612063576101008083540402835291820191612085565b820191906000526020600020905b815481529060010190602001808311612071575b505091505090815260200160405180910390208054600181600116156101000203166002900480601f01602080910402602001604051908101604052809291908181526020018280546001816001161561010002031660029004801561212c5780601f106121015761010080835404028352916020019161212c565b820191906000526020600020905b81548152906001019060200180831161210f57829003601f168201915b5050505050905060008090505b602e8110156121c15781818151811061214e57fe5b602001015160f81c60f81b8382602e811061216557fe5b60200201907effffffffffffffffffffffffffffffffffffffffffffffffffffffffffffff191690817effffffffffffffffffffffffffffffffffffffffffffffffffffffffffffff1916815250508080600101915050612139565b50818484815181106121cf57fe5b602002602001018190525050508080600101915050611fff565b50809250505090565b60095434101561226a576040517f08c379a00000000000000000000000000000000000000000000000000000000081526004018080602001828103825260148152602001807f696e73756666696369656e742062616c616e636500000000000000000000000081525060200191505060405180910390fd5b6007548151146122e2576040517f08c379a000000000000000000000000000000000000000000000000000000000815260040180806020018281038252600c8152602001807f496e76616c69642068617368000000000000000000000000000000000000000081525060200191505060405180910390fd5b600082908060018154018082558091505090600182039060005260206000200160009091929091909150908051906020019061231f9291906126e0565b5050806002836040518082805190602001908083835b602083106123585780518252602082019150602081019050602083039250612335565b6001836020036101000a0380198251168184511680821785525050505050509050019150509081526020016040518091039020908051906020019061239e9291906126e0565b505050565b80600a8190555050565b60008080549050905090565b606060006004836040518082805190602001908083835b602083106123f357805182526020820191506020810190506020830392506123d0565b6001836020036101000a03801982511681845116808217855250505050505090500191505090815260200160405180910390206001016004846040518082805190602001908083835b6020831061245f578051825260208201915060208101905060208303925061243c565b6001836020036101000a038019825116818451168082178552505050505050905001915050908152602001604051809103902060000154818054600181600116156101000203166002900480601f01602080910402602001604051908101604052809291908181526020018280546001816001161561010002031660029004801561252b5780601f106125005761010080835404028352916020019161252b565b820191906000526020600020905b81548152906001019060200180831161250e57829003601f168201915b5050505050915091509150915091565b60606002826040518082805190602001908083835b602083106125735780518252602082019150602081019050602083039250612550565b6001836020036101000a03801982511681845116808217855250505050505090500191505090815260200160405180910390208054600181600116156101000203166002900480601f01602080910402602001604051908101604052809291908181526020018280546001816001161561010002031660029004801561263a5780601f1061260f5761010080835404028352916020019161263a565b820191906000526020600020905b81548152906001019060200180831161261d57829003601f168201915b50505050509050919050565b604051806040016040528060008152602001606081525090565b828054600181600116156101000203166002900490600052602060002090601f016020900481019282601f106126a157805160ff19168380011785556126cf565b828001600101855582156126cf579182015b828111156126ce5782518255916020019190600101906126b3565b5b5090506126dc9190612875565b5090565b828054600181600116156101000203166002900490600052602060002090601f016020900481019282601f1061272157805160ff191683800117855561274f565b8280016001018555821561274f579182015b8281111561274e578251825591602001919060010190612733565b5b50905061275c9190612875565b5090565b604051806105c00160405280602e90602082028038833980820191505090505090565b604051806105c00160405280602e90602082028038833980820191505090505090565b828054600181600116156101000203166002900490600052602060002090601f016020900481019282601f106127df578054855561281c565b8280016001018555821561281c57600052602060002091601f016020900482015b8281111561281b578254825591600101919060010190612800565b5b5090506128299190612875565b5090565b50805460018160011615610100020316600290046000825580601f106128535750612872565b601f0160209004906000526020600020908101906128719190612875565b5b50565b61289791905b8082111561289357600081600090555060010161287b565b5090565b9056fea265627a7a72315820122ba436962657c00668fb2f0c5d79ccef82bb1f97e3b6dde49fcb0f1452d22064736f6c63430005100032",
  "source": "pragma solidity ^0.5.16;\r\ncontract MyContract{\r\n    \r\n    struct reviewFile{\r\n        uint rating;\r\n        string reviewFile_hash;\r\n    }\r\n    \r\n    struct review{\r\n        address reviewer;\r\n        string review_hash;\r\n    }\r\n    \r\n    string[] public products; //stores name of product in array\r\n    mapping(address => string) users; // stores hash of userdetails file with metmask address\r\n    mapping(string => string) product_hash;\r\n    address payable owner;\r\n    mapping(string => reviewFile) reviewFileByProduct; //mapping from product to review\r\n    mapping(string => review[]) reviewsByProduct; //mapping from product to user to review\r\n    mapping(address => string[]) reviewerToProduct;\r\n    uint ipfs_length=46;\r\n    mapping(address => uint) points;\r\n    uint balanceRequiredForProductOwner;\r\n    uint balanceRequiredForReviewr;\r\n    uint8 pointsPerReview;\r\n    \r\n    event Reviewstored(string);\r\n    // event check_ij(uint,uint);\r\n    \r\n    modifier onlyOwner{\r\n        require(msg.sender == owner);// Only allow owner to delete a product\r\n        _;\r\n    }\r\n    \r\n    constructor() payable public{\r\n       owner = msg.sender;\r\n    }\r\n    \r\n    function change_ipfs_length(uint8 _length) public {\r\n        ipfs_length=_length;\r\n    }\r\n    \r\n    function getProductHash(string memory name) public view returns(string memory){\r\n        return product_hash[name];\r\n    }\r\n    \r\n    function getBalance() public view returns(uint){\r\n        return address(this).balance;\r\n    }\r\n    \r\n    function getProductLength() public view returns(uint){\r\n        return products.length;\r\n    }\r\n    \r\n    function getUserProfile() public view returns(string memory){\r\n        return users[msg.sender];\r\n    }\r\n    \r\n    function setUserProfile(string memory userDetailFileHash) public {\r\n        users[msg.sender] = userDetailFileHash;\r\n    }\r\n    \r\n    function setBalanceRequiredForProductOwner(uint value) public{\r\n        balanceRequiredForProductOwner = value;\r\n    }\r\n    \r\n    function setBalanceRequiredForReviewr(uint value) public{\r\n        balanceRequiredForReviewr = value;\r\n    }\r\n    \r\n    function setPointsPerReview(uint8 value) public{\r\n        pointsPerReview = value;\r\n    }\r\n    \r\n    function getBalanceRequiredForProductOwner() public view returns(uint){\r\n        return balanceRequiredForProductOwner;\r\n    }\r\n    \r\n    function getBalanceRequiredForReviewr() public view returns(uint){\r\n        return balanceRequiredForReviewr;\r\n    }\r\n    \r\n    function getPointsPerReview() public view returns(uint){\r\n        return pointsPerReview;\r\n    }\r\n    \r\n    function getProducts() public view returns(byte[46][] memory){\r\n        uint length=products.length;\r\n        byte[46][] memory productHash = new byte[46][](length);\r\n        for(uint i=0;i<length;i++){\r\n            byte[46] memory temp;\r\n            bytes memory product_hash_inBytes = bytes(product_hash[products[i]]);\r\n            for(uint j=0;j<46;j++){\r\n                temp[j]=product_hash_inBytes[j];\r\n            }\r\n            productHash[i]=temp;\r\n        }\r\n        return productHash;\r\n    }\r\n    \r\n    function addProduct(string memory _product_name,string memory _ipfs_hash) public payable{\r\n        require(msg.value >= balanceRequiredForProductOwner,\"insufficient balance\"); // just to save network from fraud products some nominal amount\r\n        require(bytes(_ipfs_hash).length == ipfs_length,\"Invalid hash\");\r\n        products.push(_product_name);\r\n        product_hash[_product_name]=_ipfs_hash;\r\n    }\r\n    \r\n    function deleteProduct(string memory ipfs_hash) public onlyOwner{\r\n        for(uint i=0;i<products.length;i++){\r\n            if(keccak256(bytes(products[i])) == keccak256(bytes(ipfs_hash))){\r\n                products[i]=products[products.length-1];\r\n                delete products[products.length-1];\r\n            }\r\n        }\r\n    }\r\n    \r\n    function checkIfAlreadyReviewed(string memory _product_name) public view returns(bool){\r\n        string[] memory temp=reviewerToProduct[msg.sender];\r\n        bytes memory b = bytes(_product_name);\r\n        for(uint i=0;i<temp.length;i++){\r\n            bytes memory c = bytes(temp[i]);\r\n            if(keccak256(c) == keccak256(b))\r\n                return true;\r\n        }\r\n        return false;\r\n    }\r\n    \r\n    function addReview(string memory _product_name,string memory _reviewFile_hash,string memory _review_hash,uint _rating) public {\r\n        //balance need to check in front_end\r\n        require(bytes(_review_hash).length == ipfs_length,\"Invalid hash of review\");\r\n        require(bytes(_reviewFile_hash).length == ipfs_length,\"Invalid hash of reviewfile\");\r\n        require(bytes(product_hash[_product_name]).length > 0,\"This product does not exist\");\r\n        uint current_rating = reviewFileByProduct[_product_name].rating;\r\n        uint length=reviewsByProduct[_product_name].length;\r\n        uint updated_rating = (current_rating*length + _rating)/(length+1);\r\n        reviewFile memory temp = reviewFile(updated_rating,_reviewFile_hash);\r\n        reviewFileByProduct[_product_name]=temp;\r\n        reviewsByProduct[_product_name].push(review(msg.sender,_review_hash));\r\n        points[msg.sender] += pointsPerReview;\r\n        reviewerToProduct[msg.sender].push(_product_name);\r\n        emit Reviewstored(\"Review stored\");\r\n    }\r\n    \r\n    \r\n    function getProductReviewFile(string memory _product_name) public view returns(string memory,uint){\r\n        return (reviewFileByProduct[_product_name].reviewFile_hash,reviewFileByProduct[_product_name].rating);\r\n    }\r\n    \r\n    function getAllTheReviewsForProduct(string memory _product_name) public view returns(byte[46][] memory,address[] memory){\r\n        uint length=reviewsByProduct[_product_name].length;\r\n        byte[46][] memory reviewsOfProduct = new byte[46][](length);\r\n        address[] memory reviewers = new address[](length);\r\n        for(uint i=0;i<length;i++){\r\n            byte[46] memory temp;\r\n            bytes memory review_hash_inBytes = bytes(reviewsByProduct[_product_name][i].review_hash);\r\n            reviewers[i] = (reviewsByProduct[_product_name][i].reviewer);\r\n            for(uint j=0;j<46;j++){\r\n                temp[j]=review_hash_inBytes[j];\r\n            }\r\n            reviewsOfProduct[i]=temp;\r\n        }\r\n        return(reviewsOfProduct,reviewers);\r\n    }\r\n    \r\n    function redeemPrice() public returns(string memory){\r\n        require(points[msg.sender] >= 100,\"Insufficient funds\");\r\n        points[msg.sender] -= 100;\r\n        return(\"A coupen code\");\r\n    }\r\n}",
  "sourcePath": "H:/download/review-system/contracts/myContract.sol",
  "compiler": {
    "name": "solc",
    "version": "0.5.16+commit.9c3226ce.Emscripten.clang"
  },
  "schemaVersion": "3.3.3",
  "updatedAt": "2021-02-12T08:40:35.968Z",
  "networkType": "ethereum",
  "devdoc": {
    "methods": {}
  },
  "userdoc": {
    "methods": {}
  }
}