{
  "contractName": "MyContract",
  "abi": [
    {
      "inputs": [],
      "payable": true,
      "stateMutability": "payable",
      "type": "constructor"
    },
    {
      "anonymous": false,
      "inputs": [
        {
          "indexed": false,
          "internalType": "string",
          "name": "",
          "type": "string"
        }
      ],
      "name": "Reviewstored",
      "type": "event"
    },
    {
      "constant": true,
      "inputs": [
        {
          "internalType": "uint256",
          "name": "",
          "type": "uint256"
        }
      ],
      "name": "products",
      "outputs": [
        {
          "internalType": "string",
          "name": "",
          "type": "string"
        }
      ],
      "payable": false,
      "stateMutability": "view",
      "type": "function"
    },
    {
      "constant": true,
      "inputs": [],
      "name": "totalProduct",
      "outputs": [
        {
          "internalType": "uint256",
          "name": "",
          "type": "uint256"
        }
      ],
      "payable": false,
      "stateMutability": "view",
      "type": "function"
    },
    {
      "constant": true,
      "inputs": [],
      "name": "totalReview",
      "outputs": [
        {
          "internalType": "uint256",
          "name": "",
          "type": "uint256"
        }
      ],
      "payable": false,
      "stateMutability": "view",
      "type": "function"
    },
    {
      "constant": false,
      "inputs": [
        {
          "internalType": "uint8",
          "name": "_length",
          "type": "uint8"
        }
      ],
      "name": "change_ipfs_length",
      "outputs": [],
      "payable": false,
      "stateMutability": "nonpayable",
      "type": "function"
    },
    {
      "constant": true,
      "inputs": [
        {
          "internalType": "string",
          "name": "name",
          "type": "string"
        }
      ],
      "name": "getProductHash",
      "outputs": [
        {
          "internalType": "string",
          "name": "",
          "type": "string"
        }
      ],
      "payable": false,
      "stateMutability": "view",
      "type": "function"
    },
    {
      "constant": true,
      "inputs": [],
      "name": "getBalance",
      "outputs": [
        {
          "internalType": "uint256",
          "name": "",
          "type": "uint256"
        }
      ],
      "payable": false,
      "stateMutability": "view",
      "type": "function"
    },
    {
      "constant": true,
      "inputs": [],
      "name": "getProductLength",
      "outputs": [
        {
          "internalType": "uint256",
          "name": "",
          "type": "uint256"
        }
      ],
      "payable": false,
      "stateMutability": "view",
      "type": "function"
    },
    {
      "constant": true,
      "inputs": [],
      "name": "getUserProfile",
      "outputs": [
        {
          "internalType": "string",
          "name": "",
          "type": "string"
        }
      ],
      "payable": false,
      "stateMutability": "view",
      "type": "function"
    },
    {
      "constant": false,
      "inputs": [
        {
          "internalType": "string",
          "name": "userDetailFileHash",
          "type": "string"
        }
      ],
      "name": "setUserProfile",
      "outputs": [],
      "payable": false,
      "stateMutability": "nonpayable",
      "type": "function"
    },
    {
      "constant": false,
      "inputs": [
        {
          "internalType": "uint256",
          "name": "value",
          "type": "uint256"
        }
      ],
      "name": "setBalanceRequiredForProductOwner",
      "outputs": [],
      "payable": false,
      "stateMutability": "nonpayable",
      "type": "function"
    },
    {
      "constant": false,
      "inputs": [
        {
          "internalType": "uint256",
          "name": "value",
          "type": "uint256"
        }
      ],
      "name": "setBalanceRequiredForReviewr",
      "outputs": [],
      "payable": false,
      "stateMutability": "nonpayable",
      "type": "function"
    },
    {
      "constant": false,
      "inputs": [
        {
          "internalType": "uint8",
          "name": "value",
          "type": "uint8"
        }
      ],
      "name": "setPointsPerReview",
      "outputs": [],
      "payable": false,
      "stateMutability": "nonpayable",
      "type": "function"
    },
    {
      "constant": true,
      "inputs": [],
      "name": "getBalanceRequiredForProductOwner",
      "outputs": [
        {
          "internalType": "uint256",
          "name": "",
          "type": "uint256"
        }
      ],
      "payable": false,
      "stateMutability": "view",
      "type": "function"
    },
    {
      "constant": true,
      "inputs": [],
      "name": "getBalanceRequiredForReviewr",
      "outputs": [
        {
          "internalType": "uint256",
          "name": "",
          "type": "uint256"
        }
      ],
      "payable": false,
      "stateMutability": "view",
      "type": "function"
    },
    {
      "constant": true,
      "inputs": [],
      "name": "getPointsPerReview",
      "outputs": [
        {
          "internalType": "uint256",
          "name": "",
          "type": "uint256"
        }
      ],
      "payable": false,
      "stateMutability": "view",
      "type": "function"
    },
    {
      "constant": true,
      "inputs": [],
      "name": "getProducts",
      "outputs": [
        {
          "internalType": "bytes1[46][]",
          "name": "",
          "type": "bytes1[46][]"
        }
      ],
      "payable": false,
      "stateMutability": "view",
      "type": "function"
    },
    {
      "constant": false,
      "inputs": [
        {
          "internalType": "string",
          "name": "_product_name",
          "type": "string"
        },
        {
          "internalType": "string",
          "name": "_ipfs_hash",
          "type": "string"
        }
      ],
      "name": "addProduct",
      "outputs": [],
      "payable": true,
      "stateMutability": "payable",
      "type": "function"
    },
    {
      "constant": false,
      "inputs": [
        {
          "internalType": "string",
          "name": "ipfs_hash",
          "type": "string"
        }
      ],
      "name": "deleteProduct",
      "outputs": [],
      "payable": false,
      "stateMutability": "nonpayable",
      "type": "function"
    },
    {
      "constant": true,
      "inputs": [],
      "name": "getLatest5Products",
      "outputs": [
        {
          "internalType": "bytes1[46][5]",
          "name": "",
          "type": "bytes1[46][5]"
        }
      ],
      "payable": false,
      "stateMutability": "view",
      "type": "function"
    },
    {
      "constant": true,
      "inputs": [],
      "name": "getAllProductsUploadedByUser",
      "outputs": [
        {
          "internalType": "bytes1[46][]",
          "name": "",
          "type": "bytes1[46][]"
        }
      ],
      "payable": false,
      "stateMutability": "view",
      "type": "function"
    },
    {
      "constant": true,
      "inputs": [
        {
          "internalType": "string",
          "name": "_product_name",
          "type": "string"
        }
      ],
      "name": "checkIfAlreadyReviewed",
      "outputs": [
        {
          "internalType": "bool",
          "name": "",
          "type": "bool"
        }
      ],
      "payable": false,
      "stateMutability": "view",
      "type": "function"
    },
    {
      "constant": false,
      "inputs": [
        {
          "internalType": "string",
          "name": "_product_name",
          "type": "string"
        },
        {
          "internalType": "string",
          "name": "_reviewFile_hash",
          "type": "string"
        },
        {
          "internalType": "string",
          "name": "_review_hash",
          "type": "string"
        },
        {
          "internalType": "uint256",
          "name": "_rating",
          "type": "uint256"
        }
      ],
      "name": "addReview",
      "outputs": [],
      "payable": false,
      "stateMutability": "nonpayable",
      "type": "function"
    },
    {
      "constant": true,
      "inputs": [
        {
          "internalType": "string",
          "name": "_product_name",
          "type": "string"
        }
      ],
      "name": "getProductReviewFile",
      "outputs": [
        {
          "internalType": "string",
          "name": "",
          "type": "string"
        },
        {
          "internalType": "uint256",
          "name": "",
          "type": "uint256"
        }
      ],
      "payable": false,
      "stateMutability": "view",
      "type": "function"
    },
    {
      "constant": true,
      "inputs": [
        {
          "internalType": "string",
          "name": "_product_name",
          "type": "string"
        }
      ],
      "name": "getAllTheReviewsForProduct",
      "outputs": [
        {
          "internalType": "bytes1[46][]",
          "name": "",
          "type": "bytes1[46][]"
        },
        {
          "internalType": "address[]",
          "name": "",
          "type": "address[]"
        }
      ],
      "payable": false,
      "stateMutability": "view",
      "type": "function"
    },
    {
      "constant": true,
      "inputs": [],
      "name": "getAllReviewsGivenByUser",
      "outputs": [
        {
          "internalType": "bytes1[46][]",
          "name": "",
          "type": "bytes1[46][]"
        }
      ],
      "payable": false,
      "stateMutability": "view",
      "type": "function"
    },
    {
      "constant": true,
      "inputs": [],
      "name": "getLatest5Reviews",
      "outputs": [
        {
          "internalType": "bytes1[46][5]",
          "name": "",
          "type": "bytes1[46][5]"
        }
      ],
      "payable": false,
      "stateMutability": "view",
      "type": "function"
    },
    {
      "constant": true,
      "inputs": [],
      "name": "getPointsOfUser",
      "outputs": [
        {
          "internalType": "uint256",
          "name": "",
          "type": "uint256"
        }
      ],
      "payable": false,
      "stateMutability": "view",
      "type": "function"
    },
    {
      "constant": false,
      "inputs": [],
      "name": "redeemPrice",
      "outputs": [
        {
          "internalType": "string",
          "name": "",
          "type": "string"
        }
      ],
      "payable": false,
      "stateMutability": "nonpayable",
      "type": "function"
    }
  ],
  "bytecode": "0x6080604052602e60275533602160006101000a81548173ffffffffffffffffffffffffffffffffffffffff021916908373ffffffffffffffffffffffffffffffffffffffff1602179055506000602d819055506000602c8190555060008090505b6005811015620000a2576005601582600581106200007a57fe5b01819055506005601a82600581106200008f57fe5b0181905550808060010191505062000060565b506019602b60006101000a81548160ff021916908360ff16021790555061365180620000cf6000396000f3fe6080604052600436106101b55760003560e01c806372139d9a116100ec578063c29b2f201161008a578063d563f05f11610064578063d563f05f14610f4d578063f2d6181914610f88578063f5a2cd8c14610fb3578063fd0bce07146110fb576101b5565b8063c29b2f2014610d43578063ca2efb5514610dd0578063ce1006f114610f22576101b5565b80637ae2a752116100c65780637ae2a75214610b9f5780637d08f73c14610c155780639dc1c11414610c8b578063baa2b75014610cb6576101b5565b806372139d9a146109935780637a233fb314610a5b5780637acc0b2014610aeb576101b5565b80633cf35bb21161015957806362ec44281161013357806362ec4428146107735780636401c30c14610800578063654c32de146108c85780636f61c74414610903576101b5565b80633cf35bb2146104e25780634c2306bc14610668578063566bceef14610748576101b5565b806312065fe01161019557806312065fe01461024e57806314518e191461027957806314a1a4d214610479578063360d5c1c146104b7576101b5565b8062f63ce2146101ba578062ff35c5146101e5578063021376dc14610223575b600080fd5b3480156101c657600080fd5b506101cf61123c565b6040518082815260200191505060405180910390f35b3480156101f157600080fd5b506102216004803603602081101561020857600080fd5b81019080803560ff169060200190929190505050611256565b005b34801561022f57600080fd5b50610238611263565b6040518082815260200191505060405180910390f35b34801561025a57600080fd5b506102636112aa565b6040518082815260200191505060405180910390f35b34801561028557600080fd5b506104776004803603608081101561029c57600080fd5b81019080803590602001906401000000008111156102b957600080fd5b8201836020820111156102cb57600080fd5b803590602001918460018302840111640100000000831117156102ed57600080fd5b91908080601f016020809104026020016040519081016040528093929190818152602001838380828437600081840152601f19601f8201169050808301925050505050505091929192908035906020019064010000000081111561035057600080fd5b82018360208201111561036257600080fd5b8035906020019184600183028401116401000000008311171561038457600080fd5b91908080601f016020809104026020016040519081016040528093929190818152602001838380828437600081840152601f19601f820116905080830192505050505050509192919290803590602001906401000000008111156103e757600080fd5b8201836020820111156103f957600080fd5b8035906020019184600183028401116401000000008311171561041b57600080fd5b91908080601f016020809104026020016040519081016040528093929190818152602001838380828437600081840152601f19601f820116905080830192505050505050509192919290803590602001909291905050506112b2565b005b34801561048557600080fd5b506104b56004803603602081101561049c57600080fd5b81019080803560ff1690602001909291905050506119c8565b005b3480156104c357600080fd5b506104cc6119e6565b6040518082815260200191505060405180910390f35b3480156104ee57600080fd5b506105a86004803603602081101561050557600080fd5b810190808035906020019064010000000081111561052257600080fd5b82018360208201111561053457600080fd5b8035906020019184600183028401116401000000008311171561055657600080fd5b91908080601f016020809104026020016040519081016040528093929190818152602001838380828437600081840152601f19601f8201169050808301925050505050505091929192905050506119f0565b6040518080602001806020018381038352858181518152602001915080516000925b818410156106135782846020026020010151602e60200280838360005b838110156106025780820151818401526020810190506105e7565b5050505090500192600101926105ca565b92505050838103825284818151815260200191508051906020019060200280838360005b83811015610652578082015181840152602081019050610637565b5050505090500194505050505060405180910390f35b34801561067457600080fd5b5061072e6004803603602081101561068b57600080fd5b81019080803590602001906401000000008111156106a857600080fd5b8201836020820111156106ba57600080fd5b803590602001918460018302840111640100000000831117156106dc57600080fd5b91908080601f016020809104026020016040519081016040528093929190818152602001838380828437600081840152601f19601f820116905080830192505050505050509192919290505050611dc0565b604051808215151515815260200191505060405180910390f35b34801561075457600080fd5b5061075d611f4f565b6040518082815260200191505060405180910390f35b34801561077f57600080fd5b50610788611f55565b60405180806020018281038252838181518152602001915080516000925b818410156107ef5782846020026020010151602e60200280838360005b838110156107de5780820151818401526020810190506107c3565b5050505090500192600101926107a6565b925050509250505060405180910390f35b34801561080c57600080fd5b506108c66004803603602081101561082357600080fd5b810190808035906020019064010000000081111561084057600080fd5b82018360208201111561085257600080fd5b8035906020019184600183028401116401000000008311171561087457600080fd5b91908080601f016020809104026020016040519081016040528093929190818152602001838380828437600081840152601f19601f8201169050808301925050505050505091929192905050506121a5565b005b3480156108d457600080fd5b50610901600480360360208110156108eb57600080fd5b81019080803590602001909291905050506121fc565b005b34801561090f57600080fd5b50610918612206565b6040518080602001828103825283818151815260200191508051906020019080838360005b8381101561095857808201518184015260208101905061093d565b50505050905090810190601f1680156109855780820380516001836020036101000a031916815260200191505b509250505060405180910390f35b34801561099f57600080fd5b50610a59600480360360208110156109b657600080fd5b81019080803590602001906401000000008111156109d357600080fd5b8201836020820111156109e557600080fd5b80359060200191846001830284011164010000000083111715610a0757600080fd5b91908080601f016020809104026020016040519081016040528093929190818152602001838380828437600081840152601f19601f8201169050808301925050505050505091929192905050506122e5565b005b348015610a6757600080fd5b50610a70612472565b6040518080602001828103825283818151815260200191508051906020019080838360005b83811015610ab0578082015181840152602081019050610a95565b50505050905090810190601f168015610add5780820380516001836020036101000a031916815260200191505b509250505060405180910390f35b348015610af757600080fd5b50610b2460048036036020811015610b0e57600080fd5b81019080803590602001909291905050506125b3565b6040518080602001828103825283818151815260200191508051906020019080838360005b83811015610b64578082015181840152602081019050610b49565b50505050905090810190601f168015610b915780820380516001836020036101000a031916815260200191505b509250505060405180910390f35b348015610bab57600080fd5b50610bb461266c565b604051808260056000925b81841015610c055782846020020151602e60200280838360005b83811015610bf4578082015181840152602081019050610bd9565b505050509050019260010192610bbf565b9250505091505060405180910390f35b348015610c2157600080fd5b50610c2a612734565b604051808260056000925b81841015610c7b5782846020020151602e60200280838360005b83811015610c6a578082015181840152602081019050610c4f565b505050509050019260010192610c35565b9250505091505060405180910390f35b348015610c9757600080fd5b50610ca06127fc565b6040518082815260200191505060405180910390f35b348015610cc257600080fd5b50610ccb612806565b60405180806020018281038252838181518152602001915080516000925b81841015610d325782846020026020010151602e60200280838360005b83811015610d21578082015181840152602081019050610d06565b505050509050019260010192610ce9565b925050509250505060405180910390f35b348015610d4f57600080fd5b50610d58612a56565b60405180806020018281038252838181518152602001915080516000925b81841015610dbf5782846020026020010151602e60200280838360005b83811015610dae578082015181840152602081019050610d93565b505050509050019260010192610d76565b925050509250505060405180910390f35b610f2060048036036040811015610de657600080fd5b8101908080359060200190640100000000811115610e0357600080fd5b820183602082011115610e1557600080fd5b80359060200191846001830284011164010000000083111715610e3757600080fd5b91908080601f016020809104026020016040519081016040528093929190818152602001838380828437600081840152601f19601f82011690508083019250505050505050919291929080359060200190640100000000811115610e9a57600080fd5b820183602082011115610eac57600080fd5b80359060200191846001830284011164010000000083111715610ece57600080fd5b91908080601f016020809104026020016040519081016040528093929190818152602001838380828437600081840152601f19601f820116905080830192505050505050509192919290505050612c99565b005b348015610f2e57600080fd5b50610f37612ee1565b6040518082815260200191505060405180910390f35b348015610f5957600080fd5b50610f8660048036036020811015610f7057600080fd5b8101908080359060200190929190505050612ee7565b005b348015610f9457600080fd5b50610f9d612ef1565b6040518082815260200191505060405180910390f35b348015610fbf57600080fd5b5061107960048036036020811015610fd657600080fd5b8101908080359060200190640100000000811115610ff357600080fd5b82018360208201111561100557600080fd5b8035906020019184600183028401116401000000008311171561102757600080fd5b91908080601f016020809104026020016040519081016040528093929190818152602001838380828437600081840152601f19601f820116905080830192505050505050509192919290505050612efd565b6040518080602001838152602001828103825284818151815260200191508051906020019080838360005b838110156110bf5780820151818401526020810190506110a4565b50505050905090810190601f1680156110ec5780820380516001836020036101000a031916815260200191505b50935050505060405180910390f35b34801561110757600080fd5b506111c16004803603602081101561111e57600080fd5b810190808035906020019064010000000081111561113b57600080fd5b82018360208201111561114d57600080fd5b8035906020019184600183028401116401000000008311171561116f57600080fd5b91908080601f016020809104026020016040519081016040528093929190818152602001838380828437600081840152601f19601f82011690508083019250505050505050919291929050505061307f565b6040518080602001828103825283818151815260200191508051906020019080838360005b838110156112015780820151818401526020810190506111e6565b50505050905090810190601f16801561122e5780820380516001836020036101000a031916815260200191505b509250505060405180910390f35b6000602b60009054906101000a900460ff1660ff16905090565b8060ff1660278190555050565b6000602860003373ffffffffffffffffffffffffffffffffffffffff1673ffffffffffffffffffffffffffffffffffffffff16815260200190815260200160002054905090565b600047905090565b60275482511461132a576040517f08c379a00000000000000000000000000000000000000000000000000000000081526004018080602001828103825260168152602001807f496e76616c69642068617368206f66207265766965770000000000000000000081525060200191505060405180910390fd5b6027548351146113a2576040517f08c379a000000000000000000000000000000000000000000000000000000000815260040180806020018281038252601a8152602001807f496e76616c69642068617368206f662072657669657766696c6500000000000081525060200191505060405180910390fd5b60006020856040518082805190602001908083835b602083106113da57805182526020820191506020810190506020830392506113b7565b6001836020036101000a038019825116818451168082178552505050505050905001915050908152602001604051809103902080546001816001161561010002031660029004905011611495576040517f08c379a000000000000000000000000000000000000000000000000000000000815260040180806020018281038252601b8152602001807f546869732070726f6475637420646f6573206e6f74206578697374000000000081525060200191505060405180910390fd5b60006022856040518082805190602001908083835b602083106114cd57805182526020820191506020810190506020830392506114aa565b6001836020036101000a038019825116818451168082178552505050505050905001915050908152602001604051809103902060010154905060006023866040518082805190602001908083835b6020831061153e578051825260208201915060208101905060208303925061151b565b6001836020036101000a038019825116818451168082178552505050505050905001915050908152602001604051809103902080549050905060006001820184838502018161158957fe5b049050611594613394565b6040518060600160405280600160228b6040518082805190602001908083835b602083106115d757805182526020820191506020810190506020830392506115b4565b6001836020036101000a038019825116818451168082178552505050505050905001915050908152602001604051809103902060000154018152602001838152602001888152509050806022896040518082805190602001908083835b602083106116575780518252602082019150602081019050602083039250611634565b6001836020036101000a0380198251168184511680821785525050505050509050019150509081526020016040518091039020600082015181600001556020820151816001015560408201518160020190805190602001906116ba9291906133b5565b509050506023886040518082805190602001908083835b602083106116f457805182526020820191506020810190506020830392506116d1565b6001836020036101000a038019825116818451168082178552505050505050905001915050908152602001604051809103902060405180604001604052803373ffffffffffffffffffffffffffffffffffffffff168152602001888152509080600181540180825580915050906001820390600052602060002090600202016000909192909190915060008201518160000160006101000a81548173ffffffffffffffffffffffffffffffffffffffff021916908373ffffffffffffffffffffffffffffffffffffffff16021790555060208201518160010190805190602001906117e09291906133b5565b505050506117ed8661318a565b602b60009054906101000a900460ff1660ff16602860003373ffffffffffffffffffffffffffffffffffffffff1673ffffffffffffffffffffffffffffffffffffffff16815260200190815260200160002060008282540192505081905550602460003373ffffffffffffffffffffffffffffffffffffffff1673ffffffffffffffffffffffffffffffffffffffff1681526020019081526020016000208890806001815401808255809150509060018203906000526020600020016000909192909190915090805190602001906118c6929190613435565b5050602560003373ffffffffffffffffffffffffffffffffffffffff1673ffffffffffffffffffffffffffffffffffffffff168152602001908152602001600020869080600181540180825580915050906001820390600052602060002001600090919290919091509080519060200190611942929190613435565b5050602d600081548092919060010191905055507f400a3c026abff6f11f172c1b3358732ecff69730d7bf75ab5713feba40ea333460405180806020018281038252600d8152602001807f5265766965772073746f7265640000000000000000000000000000000000000081525060200191505060405180910390a15050505050505050565b80602b60006101000a81548160ff021916908360ff16021790555050565b6000602a54905090565b60608060006023846040518082805190602001908083835b60208310611a2b5780518252602082019150602081019050602083039250611a08565b6001836020036101000a0380198251168184511680821785525050505050509050019150509081526020016040518091039020805490509050606081604051908082528060200260200182016040528015611aa057816020015b611a8d6134b5565b815260200190600190039081611a855790505b509050606082604051908082528060200260200182016040528015611ad45781602001602082028038833980820191505090505b50905060008090505b83811015611db157611aed6134d8565b60606023896040518082805190602001908083835b60208310611b255780518252602082019150602081019050602083039250611b02565b6001836020036101000a03801982511681845116808217855250505050505090500191505090815260200160405180910390208381548110611b6357fe5b90600052602060002090600202016001018054600181600116156101000203166002900480601f016020809104026020016040519081016040528092919081815260200182805460018160011615610100020316600290048015611c085780601f10611bdd57610100808354040283529160200191611c08565b820191906000526020600020905b815481529060010190602001808311611beb57829003601f168201915b505050505090506023896040518082805190602001908083835b60208310611c455780518252602082019150602081019050602083039250611c22565b6001836020036101000a03801982511681845116808217855250505050505090500191505090815260200160405180910390208381548110611c8357fe5b906000526020600020906002020160000160009054906101000a900473ffffffffffffffffffffffffffffffffffffffff16848481518110611cc157fe5b602002602001019073ffffffffffffffffffffffffffffffffffffffff16908173ffffffffffffffffffffffffffffffffffffffff168152505060008090505b602e811015611d8957818181518110611d1657fe5b602001015160f81c60f81b8382602e8110611d2d57fe5b60200201907effffffffffffffffffffffffffffffffffffffffffffffffffffffffffffff191690817effffffffffffffffffffffffffffffffffffffffffffffffffffffffffffff1916815250508080600101915050611d01565b5081858481518110611d9757fe5b602002602001018190525050508080600101915050611add565b50818194509450505050915091565b60006060602460003373ffffffffffffffffffffffffffffffffffffffff1673ffffffffffffffffffffffffffffffffffffffff168152602001908152602001600020805480602002602001604051908101604052809291908181526020016000905b82821015611edf578382906000526020600020018054600181600116156101000203166002900480601f016020809104026020016040519081016040528092919081815260200182805460018160011615610100020316600290048015611ecb5780601f10611ea057610100808354040283529160200191611ecb565b820191906000526020600020905b815481529060010190602001808311611eae57829003601f168201915b505050505081526020019060010190611e23565b505050509050606083905060008090505b8251811015611f42576060838281518110611f0757fe5b60200260200101519050828051906020012081805190602001201415611f34576001945050505050611f4a565b508080600101915050611ef0565b506000925050505b919050565b602c5481565b606060003390506060602660008373ffffffffffffffffffffffffffffffffffffffff1673ffffffffffffffffffffffffffffffffffffffff168152602001908152602001600020805480602002602001604051908101604052809291908181526020016000905b82821015612079578382906000526020600020018054600181600116156101000203166002900480601f0160208091040260200160405190810160405280929190818152602001828054600181600116156101000203166002900480156120655780601f1061203a57610100808354040283529160200191612065565b820191906000526020600020905b81548152906001019060200180831161204857829003601f168201915b505050505081526020019060010190611fbd565b5050505090506000815190506060816040519080825280602002602001820160405280156120c157816020015b6120ae6134b5565b8152602001906001900390816120a65790505b50905060008090505b8281101561219a5760608482815181106120e057fe5b6020026020010151905060008090505b602e81101561218b5781818151811061210557fe5b602001015160f81c60f81b84848151811061211c57fe5b602002602001015182602e811061212f57fe5b60200201907effffffffffffffffffffffffffffffffffffffffffffffffffffffffffffff191690817effffffffffffffffffffffffffffffffffffffffffffffffffffffffffffff19168152505080806001019150506120f0565b505080806001019150506120ca565b508094505050505090565b80601f60003373ffffffffffffffffffffffffffffffffffffffff1673ffffffffffffffffffffffffffffffffffffffff16815260200190815260200160002090805190602001906121f8929190613435565b5050565b8060298190555050565b6060601f60003373ffffffffffffffffffffffffffffffffffffffff1673ffffffffffffffffffffffffffffffffffffffff1681526020019081526020016000208054600181600116156101000203166002900480601f0160208091040260200160405190810160405280929190818152602001828054600181600116156101000203166002900480156122db5780601f106122b0576101008083540402835291602001916122db565b820191906000526020600020905b8154815290600101906020018083116122be57829003601f168201915b5050505050905090565b602160009054906101000a900473ffffffffffffffffffffffffffffffffffffffff1673ffffffffffffffffffffffffffffffffffffffff163373ffffffffffffffffffffffffffffffffffffffff161461233f57600080fd5b60008090505b60008054905081101561246e5781805190602001206000828154811061236757fe5b9060005260206000200160405180828054600181600116156101000203166002900480156123cc5780601f106123aa5761010080835404028352918201916123cc565b820191906000526020600020905b8154815290600101906020018083116123b8575b505091505060405180910390201415612461576000600160008054905003815481106123f457fe5b906000526020600020016000828154811061240b57fe5b9060005260206000200190805460018160011615610100020316600290046124349291906134fb565b5060006001600080549050038154811061244a57fe5b9060005260206000200160006124609190613582565b5b8080600101915050612345565b5050565b60606064602860003373ffffffffffffffffffffffffffffffffffffffff1673ffffffffffffffffffffffffffffffffffffffff16815260200190815260200160002054101561252a576040517f08c379a00000000000000000000000000000000000000000000000000000000081526004018080602001828103825260128152602001807f496e73756666696369656e742066756e6473000000000000000000000000000081525060200191505060405180910390fd5b6064602860003373ffffffffffffffffffffffffffffffffffffffff1673ffffffffffffffffffffffffffffffffffffffff168152602001908152602001600020600082825403925050819055506040518060400160405280600d81526020017f4120636f7570656e20636f646500000000000000000000000000000000000000815250905090565b600081815481106125c057fe5b906000526020600020016000915090508054600181600116156101000203166002900480601f0160208091040260200160405190810160405280929190818152602001828054600181600116156101000203166002900480156126645780601f1061263957610100808354040283529160200191612664565b820191906000526020600020905b81548152906001019060200180831161264757829003601f168201915b505050505081565b6126746135ca565b600b600580602002604051908101604052809291906000905b8282101561272b57838260020201602e806020026040519081016040528092919082602e8015612717576020028201916000905b82829054906101000a900460f81b7effffffffffffffffffffffffffffffffffffffffffffffffffffffffffffff1916815260200190600101906020826000010492830192600103820291508084116126c15790505b50505050508152602001906001019061268d565b50505050905090565b61273c6135ca565b6001600580602002604051908101604052809291906000905b828210156127f357838260020201602e806020026040519081016040528092919082602e80156127df576020028201916000905b82829054906101000a900460f81b7effffffffffffffffffffffffffffffffffffffffffffffffffffffffffffff1916815260200190600101906020826000010492830192600103820291508084116127895790505b505050505081526020019060010190612755565b50505050905090565b6000602954905090565b606060003390506060602560008373ffffffffffffffffffffffffffffffffffffffff1673ffffffffffffffffffffffffffffffffffffffff168152602001908152602001600020805480602002602001604051908101604052809291908181526020016000905b8282101561292a578382906000526020600020018054600181600116156101000203166002900480601f0160208091040260200160405190810160405280929190818152602001828054600181600116156101000203166002900480156129165780601f106128eb57610100808354040283529160200191612916565b820191906000526020600020905b8154815290600101906020018083116128f957829003601f168201915b50505050508152602001906001019061286e565b50505050905060008151905060608160405190808252806020026020018201604052801561297257816020015b61295f6134b5565b8152602001906001900390816129575790505b50905060008090505b82811015612a4b57606084828151811061299157fe5b6020026020010151905060008090505b602e811015612a3c578181815181106129b657fe5b602001015160f81c60f81b8484815181106129cd57fe5b602002602001015182602e81106129e057fe5b60200201907effffffffffffffffffffffffffffffffffffffffffffffffffffffffffffff191690817effffffffffffffffffffffffffffffffffffffffffffffffffffffffffffff19168152505080806001019150506129a1565b5050808060010191505061297b565b508094505050505090565b6060600080805490509050606081604051908082528060200260200182016040528015612a9d57816020015b612a8a6134b5565b815260200190600190039081612a825790505b50905060008090505b82811015612c9057612ab66134d8565b6060602060008481548110612ac757fe5b906000526020600020016040518082805460018160011615610100020316600290048015612b2c5780601f10612b0a576101008083540402835291820191612b2c565b820191906000526020600020905b815481529060010190602001808311612b18575b505091505090815260200160405180910390208054600181600116156101000203166002900480601f016020809104026020016040519081016040528092919081815260200182805460018160011615610100020316600290048015612bd35780601f10612ba857610100808354040283529160200191612bd3565b820191906000526020600020905b815481529060010190602001808311612bb657829003601f168201915b5050505050905060008090505b602e811015612c6857818181518110612bf557fe5b602001015160f81c60f81b8382602e8110612c0c57fe5b60200201907effffffffffffffffffffffffffffffffffffffffffffffffffffffffffffff191690817effffffffffffffffffffffffffffffffffffffffffffffffffffffffffffff1916815250508080600101915050612be0565b5081848481518110612c7657fe5b602002602001018190525050508080600101915050612aa6565b50809250505090565b602954341015612d11576040517f08c379a00000000000000000000000000000000000000000000000000000000081526004018080602001828103825260148152602001807f696e73756666696369656e742062616c616e636500000000000000000000000081525060200191505060405180910390fd5b602754815114612d89576040517f08c379a000000000000000000000000000000000000000000000000000000000815260040180806020018281038252600c8152602001807f496e76616c69642068617368000000000000000000000000000000000000000081525060200191505060405180910390fd5b6000829080600181540180825580915050906001820390600052602060002001600090919290919091509080519060200190612dc6929190613435565b5050806020836040518082805190602001908083835b60208310612dff5780518252602082019150602081019050602083039250612ddc565b6001836020036101000a03801982511681845116808217855250505050505090500191505090815260200160405180910390209080519060200190612e45929190613435565b50612e4f8161328f565b602660003373ffffffffffffffffffffffffffffffffffffffff1673ffffffffffffffffffffffffffffffffffffffff168152602001908152602001600020819080600181540180825580915050906001820390600052602060002001600090919290919091509080519060200190612ec9929190613435565b5050602c600081548092919060010191905055505050565b602d5481565b80602a8190555050565b60008080549050905090565b606060006022836040518082805190602001908083835b60208310612f375780518252602082019150602081019050602083039250612f14565b6001836020036101000a03801982511681845116808217855250505050505090500191505090815260200160405180910390206002016022846040518082805190602001908083835b60208310612fa35780518252602082019150602081019050602083039250612f80565b6001836020036101000a038019825116818451168082178552505050505050905001915050908152602001604051809103902060010154818054600181600116156101000203166002900480601f01602080910402602001604051908101604052809291908181526020018280546001816001161561010002031660029004801561306f5780601f106130445761010080835404028352916020019161306f565b820191906000526020600020905b81548152906001019060200180831161305257829003601f168201915b5050505050915091509150915091565b60606020826040518082805190602001908083835b602083106130b75780518252602082019150602081019050602083039250613094565b6001836020036101000a03801982511681845116808217855250505050505090500191505090815260200160405180910390208054600181600116156101000203166002900480601f01602080910402602001604051908101604052809291908181526020018280546001816001161561010002031660029004801561317e5780601f106131535761010080835404028352916020019161317e565b820191906000526020600020905b81548152906001019060200180831161316157829003601f168201915b50505050509050919050565b60008090505b60058110156131c457601581600581106131a657fe5b01600081548092919060010191905055508080600101915050613190565b5060008090505b600581101561328b576005601582600581106131e357fe5b0154116131ef5761327e565b606082905060008090505b602e8110156132635781818151811061320f57fe5b602001015160f81c60f81b6001846005811061322757fe5b6002020182602e811061323657fe5b602091828204019190066101000a81548160ff021916908360f81c021790555080806001019150506131fa565b5060016015836005811061327357fe5b01819055505061328b565b80806001019150506131cb565b5050565b60008090505b60058110156132c957601a81600581106132ab57fe5b01600081548092919060010191905055508080600101915050613295565b5060008090505b6005811015613390576005601a82600581106132e857fe5b0154116132f457613383565b606082905060008090505b602e8110156133685781818151811061331457fe5b602001015160f81c60f81b600b846005811061332c57fe5b6002020182602e811061333b57fe5b602091828204019190066101000a81548160ff021916908360f81c021790555080806001019150506132ff565b506001601a836005811061337857fe5b018190555050613390565b80806001019150506132d0565b5050565b60405180606001604052806000815260200160008152602001606081525090565b828054600181600116156101000203166002900490600052602060002090601f016020900481019282601f106133f657805160ff1916838001178555613424565b82800160010185558215613424579182015b82811115613423578251825591602001919060010190613408565b5b50905061343191906135f7565b5090565b828054600181600116156101000203166002900490600052602060002090601f016020900481019282601f1061347657805160ff19168380011785556134a4565b828001600101855582156134a4579182015b828111156134a3578251825591602001919060010190613488565b5b5090506134b191906135f7565b5090565b604051806105c00160405280602e90602082028038833980820191505090505090565b604051806105c00160405280602e90602082028038833980820191505090505090565b828054600181600116156101000203166002900490600052602060002090601f016020900481019282601f106135345780548555613571565b8280016001018555821561357157600052602060002091601f016020900482015b82811115613570578254825591600101919060010190613555565b5b50905061357e91906135f7565b5090565b50805460018160011615610100020316600290046000825580601f106135a857506135c7565b601f0160209004906000526020600020908101906135c691906135f7565b5b50565b6040518060a001604052806005905b6135e16134b5565b8152602001906001900390816135d95790505090565b61361991905b808211156136155760008160009055506001016135fd565b5090565b9056fea265627a7a72315820333a9da4118439b8b714a1a3dba15bc6a374f14c1fb512e0fd26ff048897334064736f6c63430005100032",
  "source": "pragma solidity ^0.5.16;\r\ncontract MyContract{\r\n    \r\n    struct reviewFile{\r\n        uint noOfReviews;\r\n        uint rating; // should be a number between 0 to 100\r\n        string reviewFile_hash;\r\n    }\r\n    \r\n    struct review{\r\n        address reviewer;\r\n        string review_hash;\r\n    }\r\n    \r\n    string[] public products; //stores name of product in array\r\n    byte[46][5] latest5Reviews;\r\n    byte[46][5] latest5Products;\r\n    uint[5] last5ReviewRank;\r\n    uint[5] last5ProductRank;\r\n    mapping(address => string) users; // stores hash of userdetails file with metmask address\r\n    mapping(string => string) product_hash;\r\n    address payable owner;\r\n    mapping(string => reviewFile) reviewFileByProduct; //mapping from product to review\r\n    mapping(string => review[]) reviewsByProduct; //mapping from product to user to review\r\n    mapping(address => string[]) reviewerToProduct; //mapping from reviewer to product which is reviewed by reviewer\r\n    mapping(address => string[]) reviewerToReview; //store reviews which are given by reviewer\r\n    mapping(address => string[]) ownerToProduct; //store products which are uploaded by owner\r\n    uint ipfs_length=46;\r\n    mapping(address => uint) points;\r\n    uint balanceRequiredForProductOwner;\r\n    uint balanceRequiredForReviewr;\r\n    uint8 pointsPerReview;\r\n    uint public totalProduct;\r\n    uint public totalReview;\r\n    \r\n    event Reviewstored(string);\r\n    // event check_ij(uint,uint);\r\n    \r\n    modifier onlyOwner{\r\n        require(msg.sender == owner);// Only allow owner to delete a product\r\n        _;\r\n    }\r\n    \r\n    constructor() payable public{\r\n       owner = msg.sender;\r\n       totalReview = 0;\r\n       totalProduct = 0;\r\n       for(uint i=0;i<5;i++){\r\n            last5ReviewRank[i]=5;\r\n            last5ProductRank[i]=5;\r\n       }\r\n       pointsPerReview = 25;\r\n    }\r\n    \r\n    function change_ipfs_length(uint8 _length) public {\r\n        ipfs_length=_length;\r\n    }\r\n    \r\n    function getProductHash(string memory name) public view returns(string memory){\r\n        return product_hash[name];\r\n    }\r\n    \r\n    function getBalance() public view returns(uint){\r\n        return address(this).balance;\r\n    }\r\n    \r\n    function getProductLength() public view returns(uint){\r\n        return products.length;\r\n    }\r\n    \r\n    function getUserProfile() public view returns(string memory){\r\n        return users[msg.sender];\r\n    }\r\n    \r\n    function setUserProfile(string memory userDetailFileHash) public {\r\n        users[msg.sender] = userDetailFileHash;\r\n    }\r\n    \r\n    function setBalanceRequiredForProductOwner(uint value) public{ //access modifier need to be set onlyOwner\r\n        balanceRequiredForProductOwner = value;\r\n    }\r\n    \r\n    function setBalanceRequiredForReviewr(uint value) public{ //access modifier need to be set onlyOwner\r\n        balanceRequiredForReviewr = value;\r\n    }\r\n    \r\n    function setPointsPerReview(uint8 value) public{ //access modifier need to be set onlyOwner\r\n        pointsPerReview = value;\r\n    }\r\n    \r\n    function getBalanceRequiredForProductOwner() public view returns(uint){\r\n        return balanceRequiredForProductOwner;\r\n    }\r\n    \r\n    function getBalanceRequiredForReviewr() public view returns(uint){\r\n        return balanceRequiredForReviewr;\r\n    }\r\n    \r\n    function getPointsPerReview() public view returns(uint){\r\n        return pointsPerReview;\r\n    }\r\n    \r\n    function getProducts() public view returns(byte[46][] memory){\r\n        uint length=products.length;\r\n        byte[46][] memory productHash = new byte[46][](length);\r\n        for(uint i=0;i<length;i++){\r\n            byte[46] memory temp;\r\n            bytes memory product_hash_inBytes = bytes(product_hash[products[i]]);\r\n            for(uint j=0;j<46;j++){\r\n                temp[j]=product_hash_inBytes[j];\r\n            }\r\n            productHash[i]=temp;\r\n        }\r\n        return productHash;\r\n    }\r\n    \r\n    function addProductHashToLatest5(string memory _product_hash) private {\r\n        for(uint i=0;i<5;i++)\r\n            last5ProductRank[i]++;\r\n        for(uint i=0;i<5;i++){\r\n            if(last5ProductRank[i] <= 5)\r\n                continue;\r\n            bytes memory b = bytes(_product_hash);\r\n            for(uint j=0;j<46;j++)\r\n                latest5Products[i][j]=b[j];\r\n            last5ProductRank[i]=1;\r\n            break;\r\n        }\r\n    }\r\n    \r\n    function addProduct(string memory _product_name,string memory _ipfs_hash) public payable{\r\n        require(msg.value >= balanceRequiredForProductOwner,\"insufficient balance\"); // just to save network from fraud products some nominal amount\r\n        require(bytes(_ipfs_hash).length == ipfs_length,\"Invalid hash\");\r\n        products.push(_product_name);\r\n        product_hash[_product_name]=_ipfs_hash;\r\n        addProductHashToLatest5(_ipfs_hash);\r\n        ownerToProduct[msg.sender].push(_ipfs_hash);\r\n        totalProduct++;\r\n    }\r\n    \r\n    function deleteProduct(string memory ipfs_hash) public onlyOwner{\r\n        for(uint i=0;i<products.length;i++){\r\n            if(keccak256(bytes(products[i])) == keccak256(bytes(ipfs_hash))){\r\n                products[i]=products[products.length-1];\r\n                delete products[products.length-1];\r\n            }\r\n        }\r\n    }\r\n    \r\n    function getLatest5Products() public view returns(byte[46][5] memory){\r\n        return latest5Products;\r\n    }\r\n    \r\n    function getAllProductsUploadedByUser() public view returns(byte[46][] memory){\r\n        address sender = msg.sender;\r\n        string[] memory temp = ownerToProduct[sender];\r\n        uint length=temp.length;\r\n        byte[46][] memory productsOfUser = new byte[46][](length);\r\n        for(uint i=0;i<length;i++){\r\n            bytes memory b = bytes(temp[i]);\r\n            for(uint j=0;j<46;j++)\r\n                productsOfUser[i][j] = b[j];\r\n        }\r\n        return productsOfUser;\r\n    }\r\n    \r\n    function checkIfAlreadyReviewed(string memory _product_name) public view returns(bool){\r\n        string[] memory temp=reviewerToProduct[msg.sender];\r\n        bytes memory b = bytes(_product_name);\r\n        for(uint i=0;i<temp.length;i++){\r\n            bytes memory c = bytes(temp[i]);\r\n            if(keccak256(c) == keccak256(b))\r\n                return true;\r\n        }\r\n        return false;\r\n    }\r\n    \r\n    function addReviewHashToLatest5(string memory _review_hash) private {\r\n        for(uint i=0;i<5;i++)\r\n            last5ReviewRank[i]++;\r\n        for(uint i=0;i<5;i++){\r\n            if(last5ReviewRank[i] <= 5)\r\n                continue;\r\n            bytes memory b = bytes(_review_hash);\r\n            for(uint j=0;j<46;j++)\r\n                latest5Reviews[i][j]=b[j];\r\n            last5ReviewRank[i]=1;\r\n            break;\r\n        }\r\n    }\r\n    \r\n    function addReview(string memory _product_name,string memory _reviewFile_hash,string memory _review_hash,uint _rating) public {\r\n        //balance need to check in front_end\r\n        require(bytes(_review_hash).length == ipfs_length,\"Invalid hash of review\");\r\n        require(bytes(_reviewFile_hash).length == ipfs_length,\"Invalid hash of reviewfile\");\r\n        require(bytes(product_hash[_product_name]).length > 0,\"This product does not exist\");\r\n        uint current_rating = reviewFileByProduct[_product_name].rating;\r\n        uint length=reviewsByProduct[_product_name].length;\r\n        uint updated_rating = (current_rating*length + _rating)/(length+1);\r\n        reviewFile memory temp = reviewFile(reviewFileByProduct[_product_name].noOfReviews+1,updated_rating,_reviewFile_hash);\r\n        reviewFileByProduct[_product_name]=temp;\r\n        reviewsByProduct[_product_name].push(review(msg.sender,_review_hash));\r\n        addReviewHashToLatest5(_review_hash);\r\n        points[msg.sender] += pointsPerReview;\r\n        reviewerToProduct[msg.sender].push(_product_name);\r\n        reviewerToReview[msg.sender].push(_review_hash);\r\n        totalReview++;\r\n        emit Reviewstored(\"Review stored\");\r\n    }\r\n    \r\n    function getProductReviewFile(string memory _product_name) public view returns(string memory,uint){\r\n        return (reviewFileByProduct[_product_name].reviewFile_hash,reviewFileByProduct[_product_name].rating);\r\n    }\r\n    \r\n    function getAllTheReviewsForProduct(string memory _product_name) public view returns(byte[46][] memory,address[] memory){\r\n        uint length=reviewsByProduct[_product_name].length;\r\n        byte[46][] memory reviewsOfProduct = new byte[46][](length);\r\n        address[] memory reviewers = new address[](length);\r\n        for(uint i=0;i<length;i++){\r\n            byte[46] memory temp;\r\n            bytes memory review_hash_inBytes = bytes(reviewsByProduct[_product_name][i].review_hash);\r\n            reviewers[i] = (reviewsByProduct[_product_name][i].reviewer);\r\n            for(uint j=0;j<46;j++){\r\n                temp[j]=review_hash_inBytes[j];\r\n            }\r\n            reviewsOfProduct[i]=temp;\r\n        }\r\n        return(reviewsOfProduct,reviewers);\r\n    }\r\n    \r\n    function getAllReviewsGivenByUser() public view returns(byte[46][] memory){\r\n        address sender = msg.sender;\r\n        string[] memory temp = reviewerToReview[sender];\r\n        uint length=temp.length;\r\n        byte[46][] memory reviewsOfUser = new byte[46][](length);\r\n        for(uint i=0;i<length;i++){\r\n            bytes memory b = bytes(temp[i]);\r\n            for(uint j=0;j<46;j++)\r\n                reviewsOfUser[i][j] = b[j];\r\n        }\r\n        return reviewsOfUser;\r\n    }\r\n    \r\n    function getLatest5Reviews() public view returns(byte[46][5] memory){\r\n       return latest5Reviews; \r\n    }\r\n    \r\n    function getPointsOfUser() public view returns(uint){\r\n        return points[msg.sender];\r\n    }\r\n    \r\n    function redeemPrice() public returns(string memory){\r\n        require(points[msg.sender] >= 100,\"Insufficient funds\");\r\n        points[msg.sender] -= 100;\r\n        return(\"A coupen code\");\r\n    }\r\n}",
  "sourcePath": "H:/download/review-system/contracts/myContract.sol",
  "compiler": {
    "name": "solc",
    "version": "0.5.16+commit.9c3226ce.Emscripten.clang"
  },
  "schemaVersion": "3.3.3",
  "updatedAt": "2021-04-25T16:12:55.692Z",
  "networkType": "ethereum",
  "devdoc": {
    "methods": {}
  },
  "userdoc": {
    "methods": {}
  }
}