{
  "contractName": "MyContract",
  "abi": [
    {
      "inputs": [],
      "payable": true,
      "stateMutability": "payable",
      "type": "constructor"
    },
    {
      "anonymous": false,
      "inputs": [
        {
          "indexed": false,
          "internalType": "string",
          "name": "",
          "type": "string"
        }
      ],
      "name": "Reviewstored",
      "type": "event"
    },
    {
      "constant": true,
      "inputs": [
        {
          "internalType": "uint256",
          "name": "",
          "type": "uint256"
        }
      ],
      "name": "products",
      "outputs": [
        {
          "internalType": "string",
          "name": "",
          "type": "string"
        }
      ],
      "payable": false,
      "stateMutability": "view",
      "type": "function"
    },
    {
      "constant": true,
      "inputs": [],
      "name": "totalProduct",
      "outputs": [
        {
          "internalType": "uint256",
          "name": "",
          "type": "uint256"
        }
      ],
      "payable": false,
      "stateMutability": "view",
      "type": "function"
    },
    {
      "constant": true,
      "inputs": [],
      "name": "totalReview",
      "outputs": [
        {
          "internalType": "uint256",
          "name": "",
          "type": "uint256"
        }
      ],
      "payable": false,
      "stateMutability": "view",
      "type": "function"
    },
    {
      "constant": false,
      "inputs": [
        {
          "internalType": "uint8",
          "name": "_length",
          "type": "uint8"
        }
      ],
      "name": "change_ipfs_length",
      "outputs": [],
      "payable": false,
      "stateMutability": "nonpayable",
      "type": "function"
    },
    {
      "constant": true,
      "inputs": [
        {
          "internalType": "string",
          "name": "name",
          "type": "string"
        }
      ],
      "name": "getProductHash",
      "outputs": [
        {
          "internalType": "string",
          "name": "",
          "type": "string"
        }
      ],
      "payable": false,
      "stateMutability": "view",
      "type": "function"
    },
    {
      "constant": true,
      "inputs": [],
      "name": "getBalance",
      "outputs": [
        {
          "internalType": "uint256",
          "name": "",
          "type": "uint256"
        }
      ],
      "payable": false,
      "stateMutability": "view",
      "type": "function"
    },
    {
      "constant": true,
      "inputs": [],
      "name": "getProductLength",
      "outputs": [
        {
          "internalType": "uint256",
          "name": "",
          "type": "uint256"
        }
      ],
      "payable": false,
      "stateMutability": "view",
      "type": "function"
    },
    {
      "constant": true,
      "inputs": [],
      "name": "getUserProfile",
      "outputs": [
        {
          "internalType": "string",
          "name": "",
          "type": "string"
        }
      ],
      "payable": false,
      "stateMutability": "view",
      "type": "function"
    },
    {
      "constant": false,
      "inputs": [
        {
          "internalType": "string",
          "name": "userDetailFileHash",
          "type": "string"
        }
      ],
      "name": "setUserProfile",
      "outputs": [],
      "payable": false,
      "stateMutability": "nonpayable",
      "type": "function"
    },
    {
      "constant": false,
      "inputs": [
        {
          "internalType": "uint256",
          "name": "value",
          "type": "uint256"
        }
      ],
      "name": "setBalanceRequiredForProductOwner",
      "outputs": [],
      "payable": false,
      "stateMutability": "nonpayable",
      "type": "function"
    },
    {
      "constant": false,
      "inputs": [
        {
          "internalType": "uint256",
          "name": "value",
          "type": "uint256"
        }
      ],
      "name": "setBalanceRequiredForReviewr",
      "outputs": [],
      "payable": false,
      "stateMutability": "nonpayable",
      "type": "function"
    },
    {
      "constant": false,
      "inputs": [
        {
          "internalType": "uint8",
          "name": "value",
          "type": "uint8"
        }
      ],
      "name": "setPointsPerReview",
      "outputs": [],
      "payable": false,
      "stateMutability": "nonpayable",
      "type": "function"
    },
    {
      "constant": true,
      "inputs": [],
      "name": "getBalanceRequiredForProductOwner",
      "outputs": [
        {
          "internalType": "uint256",
          "name": "",
          "type": "uint256"
        }
      ],
      "payable": false,
      "stateMutability": "view",
      "type": "function"
    },
    {
      "constant": true,
      "inputs": [],
      "name": "getBalanceRequiredForReviewr",
      "outputs": [
        {
          "internalType": "uint256",
          "name": "",
          "type": "uint256"
        }
      ],
      "payable": false,
      "stateMutability": "view",
      "type": "function"
    },
    {
      "constant": true,
      "inputs": [],
      "name": "getPointsPerReview",
      "outputs": [
        {
          "internalType": "uint256",
          "name": "",
          "type": "uint256"
        }
      ],
      "payable": false,
      "stateMutability": "view",
      "type": "function"
    },
    {
      "constant": true,
      "inputs": [],
      "name": "getProducts",
      "outputs": [
        {
          "internalType": "bytes1[46][]",
          "name": "",
          "type": "bytes1[46][]"
        }
      ],
      "payable": false,
      "stateMutability": "view",
      "type": "function"
    },
    {
      "constant": false,
      "inputs": [
        {
          "internalType": "string",
          "name": "_product_name",
          "type": "string"
        },
        {
          "internalType": "string",
          "name": "_ipfs_hash",
          "type": "string"
        }
      ],
      "name": "addProduct",
      "outputs": [],
      "payable": true,
      "stateMutability": "payable",
      "type": "function"
    },
    {
      "constant": false,
      "inputs": [
        {
          "internalType": "string",
          "name": "ipfs_hash",
          "type": "string"
        }
      ],
      "name": "deleteProduct",
      "outputs": [],
      "payable": false,
      "stateMutability": "nonpayable",
      "type": "function"
    },
    {
      "constant": true,
      "inputs": [],
      "name": "getLatest5Products",
      "outputs": [
        {
          "internalType": "bytes1[46][5]",
          "name": "",
          "type": "bytes1[46][5]"
        }
      ],
      "payable": false,
      "stateMutability": "view",
      "type": "function"
    },
    {
      "constant": true,
      "inputs": [
        {
          "internalType": "string",
          "name": "_product_name",
          "type": "string"
        }
      ],
      "name": "checkIfAlreadyReviewed",
      "outputs": [
        {
          "internalType": "bool",
          "name": "",
          "type": "bool"
        }
      ],
      "payable": false,
      "stateMutability": "view",
      "type": "function"
    },
    {
      "constant": false,
      "inputs": [
        {
          "internalType": "string",
          "name": "_product_name",
          "type": "string"
        },
        {
          "internalType": "string",
          "name": "_reviewFile_hash",
          "type": "string"
        },
        {
          "internalType": "string",
          "name": "_review_hash",
          "type": "string"
        },
        {
          "internalType": "uint256",
          "name": "_rating",
          "type": "uint256"
        }
      ],
      "name": "addReview",
      "outputs": [],
      "payable": false,
      "stateMutability": "nonpayable",
      "type": "function"
    },
    {
      "constant": true,
      "inputs": [
        {
          "internalType": "string",
          "name": "_product_name",
          "type": "string"
        }
      ],
      "name": "getProductReviewFile",
      "outputs": [
        {
          "internalType": "string",
          "name": "",
          "type": "string"
        },
        {
          "internalType": "uint256",
          "name": "",
          "type": "uint256"
        }
      ],
      "payable": false,
      "stateMutability": "view",
      "type": "function"
    },
    {
      "constant": true,
      "inputs": [
        {
          "internalType": "string",
          "name": "_product_name",
          "type": "string"
        }
      ],
      "name": "getAllTheReviewsForProduct",
      "outputs": [
        {
          "internalType": "bytes1[46][]",
          "name": "",
          "type": "bytes1[46][]"
        },
        {
          "internalType": "address[]",
          "name": "",
          "type": "address[]"
        }
      ],
      "payable": false,
      "stateMutability": "view",
      "type": "function"
    },
    {
      "constant": true,
      "inputs": [],
      "name": "getAllReviewsGivenByUser",
      "outputs": [
        {
          "internalType": "bytes1[46][]",
          "name": "",
          "type": "bytes1[46][]"
        }
      ],
      "payable": false,
      "stateMutability": "view",
      "type": "function"
    },
    {
      "constant": true,
      "inputs": [],
      "name": "getLatest5Reviews",
      "outputs": [
        {
          "internalType": "bytes1[46][5]",
          "name": "",
          "type": "bytes1[46][5]"
        }
      ],
      "payable": false,
      "stateMutability": "view",
      "type": "function"
    },
    {
      "constant": true,
      "inputs": [],
      "name": "getPointsOfUser",
      "outputs": [
        {
          "internalType": "uint256",
          "name": "",
          "type": "uint256"
        }
      ],
      "payable": false,
      "stateMutability": "view",
      "type": "function"
    },
    {
      "constant": false,
      "inputs": [],
      "name": "redeemPrice",
      "outputs": [
        {
          "internalType": "string",
          "name": "",
          "type": "string"
        }
      ],
      "payable": false,
      "stateMutability": "nonpayable",
      "type": "function"
    }
  ],
  "bytecode": "0x6080604052602e60265533602160006101000a81548173ffffffffffffffffffffffffffffffffffffffff021916908373ffffffffffffffffffffffffffffffffffffffff1602179055506000602c819055506000602b8190555060008090505b600581101561009e5760056015826005811061007857fe5b01819055506005601a826005811061008c57fe5b01819055508080600101915050610060565b506019602a60006101000a81548160ff021916908360ff16021790555061325780620000cb6000396000f3fe60806040526004361061019a5760003560e01c806372139d9a116100ec578063c29b2f201161008a578063d563f05f11610064578063d563f05f14610ea5578063f2d6181914610ee0578063f5a2cd8c14610f0b578063fd0bce07146110535761019a565b8063c29b2f2014610c9b578063ca2efb5514610d28578063ce1006f114610e7a5761019a565b80637ae2a752116100c65780637ae2a75214610af75780637d08f73c14610b6d5780639dc1c11414610be3578063baa2b75014610c0e5761019a565b806372139d9a146108eb5780637a233fb3146109b35780637acc0b2014610a435761019a565b8063360d5c1c11610159578063566bceef11610133578063566bceef1461072d5780636401c30c14610758578063654c32de146108205780636f61c7441461085b5761019a565b8063360d5c1c1461049c5780633cf35bb2146104c75780634c2306bc1461064d5761019a565b8062f63ce21461019f578062ff35c5146101ca578063021376dc1461020857806312065fe01461023357806314518e191461025e57806314a1a4d21461045e575b600080fd5b3480156101ab57600080fd5b506101b4611194565b6040518082815260200191505060405180910390f35b3480156101d657600080fd5b50610206600480360360208110156101ed57600080fd5b81019080803560ff1690602001909291905050506111ae565b005b34801561021457600080fd5b5061021d6111bb565b6040518082815260200191505060405180910390f35b34801561023f57600080fd5b50610248611202565b6040518082815260200191505060405180910390f35b34801561026a57600080fd5b5061045c6004803603608081101561028157600080fd5b810190808035906020019064010000000081111561029e57600080fd5b8201836020820111156102b057600080fd5b803590602001918460018302840111640100000000831117156102d257600080fd5b91908080601f016020809104026020016040519081016040528093929190818152602001838380828437600081840152601f19601f8201169050808301925050505050505091929192908035906020019064010000000081111561033557600080fd5b82018360208201111561034757600080fd5b8035906020019184600183028401116401000000008311171561036957600080fd5b91908080601f016020809104026020016040519081016040528093929190818152602001838380828437600081840152601f19601f820116905080830192505050505050509192919290803590602001906401000000008111156103cc57600080fd5b8201836020820111156103de57600080fd5b8035906020019184600183028401116401000000008311171561040057600080fd5b91908080601f016020809104026020016040519081016040528093929190818152602001838380828437600081840152601f19601f8201169050808301925050505050505091929192908035906020019092919050505061120a565b005b34801561046a57600080fd5b5061049a6004803603602081101561048157600080fd5b81019080803560ff1690602001909291905050506118a1565b005b3480156104a857600080fd5b506104b16118bf565b6040518082815260200191505060405180910390f35b3480156104d357600080fd5b5061058d600480360360208110156104ea57600080fd5b810190808035906020019064010000000081111561050757600080fd5b82018360208201111561051957600080fd5b8035906020019184600183028401116401000000008311171561053b57600080fd5b91908080601f016020809104026020016040519081016040528093929190818152602001838380828437600081840152601f19601f8201169050808301925050505050505091929192905050506118c9565b6040518080602001806020018381038352858181518152602001915080516000925b818410156105f85782846020026020010151602e60200280838360005b838110156105e75780820151818401526020810190506105cc565b5050505090500192600101926105af565b92505050838103825284818151815260200191508051906020019060200280838360005b8381101561063757808201518184015260208101905061061c565b5050505090500194505050505060405180910390f35b34801561065957600080fd5b506107136004803603602081101561067057600080fd5b810190808035906020019064010000000081111561068d57600080fd5b82018360208201111561069f57600080fd5b803590602001918460018302840111640100000000831117156106c157600080fd5b91908080601f016020809104026020016040519081016040528093929190818152602001838380828437600081840152601f19601f820116905080830192505050505050509192919290505050611c99565b604051808215151515815260200191505060405180910390f35b34801561073957600080fd5b50610742611e28565b6040518082815260200191505060405180910390f35b34801561076457600080fd5b5061081e6004803603602081101561077b57600080fd5b810190808035906020019064010000000081111561079857600080fd5b8201836020820111156107aa57600080fd5b803590602001918460018302840111640100000000831117156107cc57600080fd5b91908080601f016020809104026020016040519081016040528093929190818152602001838380828437600081840152601f19601f820116905080830192505050505050509192919290505050611e2e565b005b34801561082c57600080fd5b506108596004803603602081101561084357600080fd5b8101908080359060200190929190505050611e85565b005b34801561086757600080fd5b50610870611e8f565b6040518080602001828103825283818151815260200191508051906020019080838360005b838110156108b0578082015181840152602081019050610895565b50505050905090810190601f1680156108dd5780820380516001836020036101000a031916815260200191505b509250505060405180910390f35b3480156108f757600080fd5b506109b16004803603602081101561090e57600080fd5b810190808035906020019064010000000081111561092b57600080fd5b82018360208201111561093d57600080fd5b8035906020019184600183028401116401000000008311171561095f57600080fd5b91908080601f016020809104026020016040519081016040528093929190818152602001838380828437600081840152601f19601f820116905080830192505050505050509192919290505050611f6e565b005b3480156109bf57600080fd5b506109c86120fb565b6040518080602001828103825283818151815260200191508051906020019080838360005b83811015610a085780820151818401526020810190506109ed565b50505050905090810190601f168015610a355780820380516001836020036101000a031916815260200191505b509250505060405180910390f35b348015610a4f57600080fd5b50610a7c60048036036020811015610a6657600080fd5b810190808035906020019092919050505061223c565b6040518080602001828103825283818151815260200191508051906020019080838360005b83811015610abc578082015181840152602081019050610aa1565b50505050905090810190601f168015610ae95780820380516001836020036101000a031916815260200191505b509250505060405180910390f35b348015610b0357600080fd5b50610b0c6122f5565b604051808260056000925b81841015610b5d5782846020020151602e60200280838360005b83811015610b4c578082015181840152602081019050610b31565b505050509050019260010192610b17565b9250505091505060405180910390f35b348015610b7957600080fd5b50610b826123bd565b604051808260056000925b81841015610bd35782846020020151602e60200280838360005b83811015610bc2578082015181840152602081019050610ba7565b505050509050019260010192610b8d565b9250505091505060405180910390f35b348015610bef57600080fd5b50610bf8612485565b6040518082815260200191505060405180910390f35b348015610c1a57600080fd5b50610c2361248f565b60405180806020018281038252838181518152602001915080516000925b81841015610c8a5782846020026020010151602e60200280838360005b83811015610c79578082015181840152602081019050610c5e565b505050509050019260010192610c41565b925050509250505060405180910390f35b348015610ca757600080fd5b50610cb06126df565b60405180806020018281038252838181518152602001915080516000925b81841015610d175782846020026020010151602e60200280838360005b83811015610d06578082015181840152602081019050610ceb565b505050509050019260010192610cce565b925050509250505060405180910390f35b610e7860048036036040811015610d3e57600080fd5b8101908080359060200190640100000000811115610d5b57600080fd5b820183602082011115610d6d57600080fd5b80359060200191846001830284011164010000000083111715610d8f57600080fd5b91908080601f016020809104026020016040519081016040528093929190818152602001838380828437600081840152601f19601f82011690508083019250505050505050919291929080359060200190640100000000811115610df257600080fd5b820183602082011115610e0457600080fd5b80359060200191846001830284011164010000000083111715610e2657600080fd5b91908080601f016020809104026020016040519081016040528093929190818152602001838380828437600081840152601f19601f820116905080830192505050505050509192919290505050612922565b005b348015610e8657600080fd5b50610e8f612aee565b6040518082815260200191505060405180910390f35b348015610eb157600080fd5b50610ede60048036036020811015610ec857600080fd5b8101908080359060200190929190505050612af4565b005b348015610eec57600080fd5b50610ef5612afe565b6040518082815260200191505060405180910390f35b348015610f1757600080fd5b50610fd160048036036020811015610f2e57600080fd5b8101908080359060200190640100000000811115610f4b57600080fd5b820183602082011115610f5d57600080fd5b80359060200191846001830284011164010000000083111715610f7f57600080fd5b91908080601f016020809104026020016040519081016040528093929190818152602001838380828437600081840152601f19601f820116905080830192505050505050509192919290505050612b0a565b6040518080602001838152602001828103825284818151815260200191508051906020019080838360005b83811015611017578082015181840152602081019050610ffc565b50505050905090810190601f1680156110445780820380516001836020036101000a031916815260200191505b50935050505060405180910390f35b34801561105f57600080fd5b506111196004803603602081101561107657600080fd5b810190808035906020019064010000000081111561109357600080fd5b8201836020820111156110a557600080fd5b803590602001918460018302840111640100000000831117156110c757600080fd5b91908080601f016020809104026020016040519081016040528093929190818152602001838380828437600081840152601f19601f820116905080830192505050505050509192919290505050612c8c565b6040518080602001828103825283818151815260200191508051906020019080838360005b8381101561115957808201518184015260208101905061113e565b50505050905090810190601f1680156111865780820380516001836020036101000a031916815260200191505b509250505060405180910390f35b6000602a60009054906101000a900460ff1660ff16905090565b8060ff1660268190555050565b6000602760003373ffffffffffffffffffffffffffffffffffffffff1673ffffffffffffffffffffffffffffffffffffffff16815260200190815260200160002054905090565b600047905090565b602654825114611282576040517f08c379a00000000000000000000000000000000000000000000000000000000081526004018080602001828103825260168152602001807f496e76616c69642068617368206f66207265766965770000000000000000000081525060200191505060405180910390fd5b6026548351146112fa576040517f08c379a000000000000000000000000000000000000000000000000000000000815260040180806020018281038252601a8152602001807f496e76616c69642068617368206f662072657669657766696c6500000000000081525060200191505060405180910390fd5b60006020856040518082805190602001908083835b60208310611332578051825260208201915060208101905060208303925061130f565b6001836020036101000a0380198251168184511680821785525050505050509050019150509081526020016040518091039020805460018160011615610100020316600290049050116113ed576040517f08c379a000000000000000000000000000000000000000000000000000000000815260040180806020018281038252601b8152602001807f546869732070726f6475637420646f6573206e6f74206578697374000000000081525060200191505060405180910390fd5b60006022856040518082805190602001908083835b602083106114255780518252602082019150602081019050602083039250611402565b6001836020036101000a038019825116818451168082178552505050505050905001915050908152602001604051809103902060000154905060006023866040518082805190602001908083835b602083106114965780518252602082019150602081019050602083039250611473565b6001836020036101000a03801982511681845116808217855250505050505090500191505090815260200160405180910390208054905090506000600182018483850201816114e157fe5b0490506114ec612fa1565b6040518060400160405280838152602001888152509050806022896040518082805190602001908083835b6020831061153a5780518252602082019150602081019050602083039250611517565b6001836020036101000a0380198251168184511680821785525050505050509050019150509081526020016040518091039020600082015181600001556020820151816001019080519060200190611593929190612fbb565b509050506023886040518082805190602001908083835b602083106115cd57805182526020820191506020810190506020830392506115aa565b6001836020036101000a038019825116818451168082178552505050505050905001915050908152602001604051809103902060405180604001604052803373ffffffffffffffffffffffffffffffffffffffff168152602001888152509080600181540180825580915050906001820390600052602060002090600202016000909192909190915060008201518160000160006101000a81548173ffffffffffffffffffffffffffffffffffffffff021916908373ffffffffffffffffffffffffffffffffffffffff16021790555060208201518160010190805190602001906116b9929190612fbb565b505050506116c686612d97565b602a60009054906101000a900460ff1660ff16602760003373ffffffffffffffffffffffffffffffffffffffff1673ffffffffffffffffffffffffffffffffffffffff16815260200190815260200160002060008282540192505081905550602460003373ffffffffffffffffffffffffffffffffffffffff1673ffffffffffffffffffffffffffffffffffffffff16815260200190815260200160002088908060018154018082558091505090600182039060005260206000200160009091929091909150908051906020019061179f92919061303b565b5050602560003373ffffffffffffffffffffffffffffffffffffffff1673ffffffffffffffffffffffffffffffffffffffff16815260200190815260200160002086908060018154018082558091505090600182039060005260206000200160009091929091909150908051906020019061181b92919061303b565b5050602c600081548092919060010191905055507f400a3c026abff6f11f172c1b3358732ecff69730d7bf75ab5713feba40ea333460405180806020018281038252600d8152602001807f5265766965772073746f7265640000000000000000000000000000000000000081525060200191505060405180910390a15050505050505050565b80602a60006101000a81548160ff021916908360ff16021790555050565b6000602954905090565b60608060006023846040518082805190602001908083835b6020831061190457805182526020820191506020810190506020830392506118e1565b6001836020036101000a038019825116818451168082178552505050505050905001915050908152602001604051809103902080549050905060608160405190808252806020026020018201604052801561197957816020015b6119666130bb565b81526020019060019003908161195e5790505b5090506060826040519080825280602002602001820160405280156119ad5781602001602082028038833980820191505090505b50905060008090505b83811015611c8a576119c66130de565b60606023896040518082805190602001908083835b602083106119fe57805182526020820191506020810190506020830392506119db565b6001836020036101000a03801982511681845116808217855250505050505090500191505090815260200160405180910390208381548110611a3c57fe5b90600052602060002090600202016001018054600181600116156101000203166002900480601f016020809104026020016040519081016040528092919081815260200182805460018160011615610100020316600290048015611ae15780601f10611ab657610100808354040283529160200191611ae1565b820191906000526020600020905b815481529060010190602001808311611ac457829003601f168201915b505050505090506023896040518082805190602001908083835b60208310611b1e5780518252602082019150602081019050602083039250611afb565b6001836020036101000a03801982511681845116808217855250505050505090500191505090815260200160405180910390208381548110611b5c57fe5b906000526020600020906002020160000160009054906101000a900473ffffffffffffffffffffffffffffffffffffffff16848481518110611b9a57fe5b602002602001019073ffffffffffffffffffffffffffffffffffffffff16908173ffffffffffffffffffffffffffffffffffffffff168152505060008090505b602e811015611c6257818181518110611bef57fe5b602001015160f81c60f81b8382602e8110611c0657fe5b60200201907effffffffffffffffffffffffffffffffffffffffffffffffffffffffffffff191690817effffffffffffffffffffffffffffffffffffffffffffffffffffffffffffff1916815250508080600101915050611bda565b5081858481518110611c7057fe5b6020026020010181905250505080806001019150506119b6565b50818194509450505050915091565b60006060602460003373ffffffffffffffffffffffffffffffffffffffff1673ffffffffffffffffffffffffffffffffffffffff168152602001908152602001600020805480602002602001604051908101604052809291908181526020016000905b82821015611db8578382906000526020600020018054600181600116156101000203166002900480601f016020809104026020016040519081016040528092919081815260200182805460018160011615610100020316600290048015611da45780601f10611d7957610100808354040283529160200191611da4565b820191906000526020600020905b815481529060010190602001808311611d8757829003601f168201915b505050505081526020019060010190611cfc565b505050509050606083905060008090505b8251811015611e1b576060838281518110611de057fe5b60200260200101519050828051906020012081805190602001201415611e0d576001945050505050611e23565b508080600101915050611dc9565b506000925050505b919050565b602b5481565b80601f60003373ffffffffffffffffffffffffffffffffffffffff1673ffffffffffffffffffffffffffffffffffffffff1681526020019081526020016000209080519060200190611e8192919061303b565b5050565b8060288190555050565b6060601f60003373ffffffffffffffffffffffffffffffffffffffff1673ffffffffffffffffffffffffffffffffffffffff1681526020019081526020016000208054600181600116156101000203166002900480601f016020809104026020016040519081016040528092919081815260200182805460018160011615610100020316600290048015611f645780601f10611f3957610100808354040283529160200191611f64565b820191906000526020600020905b815481529060010190602001808311611f4757829003601f168201915b5050505050905090565b602160009054906101000a900473ffffffffffffffffffffffffffffffffffffffff1673ffffffffffffffffffffffffffffffffffffffff163373ffffffffffffffffffffffffffffffffffffffff1614611fc857600080fd5b60008090505b6000805490508110156120f757818051906020012060008281548110611ff057fe5b9060005260206000200160405180828054600181600116156101000203166002900480156120555780601f10612033576101008083540402835291820191612055565b820191906000526020600020905b815481529060010190602001808311612041575b5050915050604051809103902014156120ea5760006001600080549050038154811061207d57fe5b906000526020600020016000828154811061209457fe5b9060005260206000200190805460018160011615610100020316600290046120bd929190613101565b506000600160008054905003815481106120d357fe5b9060005260206000200160006120e99190613188565b5b8080600101915050611fce565b5050565b60606064602760003373ffffffffffffffffffffffffffffffffffffffff1673ffffffffffffffffffffffffffffffffffffffff1681526020019081526020016000205410156121b3576040517f08c379a00000000000000000000000000000000000000000000000000000000081526004018080602001828103825260128152602001807f496e73756666696369656e742066756e6473000000000000000000000000000081525060200191505060405180910390fd5b6064602760003373ffffffffffffffffffffffffffffffffffffffff1673ffffffffffffffffffffffffffffffffffffffff168152602001908152602001600020600082825403925050819055506040518060400160405280600d81526020017f4120636f7570656e20636f646500000000000000000000000000000000000000815250905090565b6000818154811061224957fe5b906000526020600020016000915090508054600181600116156101000203166002900480601f0160208091040260200160405190810160405280929190818152602001828054600181600116156101000203166002900480156122ed5780601f106122c2576101008083540402835291602001916122ed565b820191906000526020600020905b8154815290600101906020018083116122d057829003601f168201915b505050505081565b6122fd6131d0565b600b600580602002604051908101604052809291906000905b828210156123b457838260020201602e806020026040519081016040528092919082602e80156123a0576020028201916000905b82829054906101000a900460f81b7effffffffffffffffffffffffffffffffffffffffffffffffffffffffffffff19168152602001906001019060208260000104928301926001038202915080841161234a5790505b505050505081526020019060010190612316565b50505050905090565b6123c56131d0565b6001600580602002604051908101604052809291906000905b8282101561247c57838260020201602e806020026040519081016040528092919082602e8015612468576020028201916000905b82829054906101000a900460f81b7effffffffffffffffffffffffffffffffffffffffffffffffffffffffffffff1916815260200190600101906020826000010492830192600103820291508084116124125790505b5050505050815260200190600101906123de565b50505050905090565b6000602854905090565b606060003390506060602460008373ffffffffffffffffffffffffffffffffffffffff1673ffffffffffffffffffffffffffffffffffffffff168152602001908152602001600020805480602002602001604051908101604052809291908181526020016000905b828210156125b3578382906000526020600020018054600181600116156101000203166002900480601f01602080910402602001604051908101604052809291908181526020018280546001816001161561010002031660029004801561259f5780601f106125745761010080835404028352916020019161259f565b820191906000526020600020905b81548152906001019060200180831161258257829003601f168201915b5050505050815260200190600101906124f7565b5050505090506000815190506060816040519080825280602002602001820160405280156125fb57816020015b6125e86130bb565b8152602001906001900390816125e05790505b50905060008090505b828110156126d457606084828151811061261a57fe5b6020026020010151905060008090505b602e8110156126c55781818151811061263f57fe5b602001015160f81c60f81b84848151811061265657fe5b602002602001015182602e811061266957fe5b60200201907effffffffffffffffffffffffffffffffffffffffffffffffffffffffffffff191690817effffffffffffffffffffffffffffffffffffffffffffffffffffffffffffff191681525050808060010191505061262a565b50508080600101915050612604565b508094505050505090565b606060008080549050905060608160405190808252806020026020018201604052801561272657816020015b6127136130bb565b81526020019060019003908161270b5790505b50905060008090505b828110156129195761273f6130de565b606060206000848154811061275057fe5b9060005260206000200160405180828054600181600116156101000203166002900480156127b55780601f106127935761010080835404028352918201916127b5565b820191906000526020600020905b8154815290600101906020018083116127a1575b505091505090815260200160405180910390208054600181600116156101000203166002900480601f01602080910402602001604051908101604052809291908181526020018280546001816001161561010002031660029004801561285c5780601f106128315761010080835404028352916020019161285c565b820191906000526020600020905b81548152906001019060200180831161283f57829003601f168201915b5050505050905060008090505b602e8110156128f15781818151811061287e57fe5b602001015160f81c60f81b8382602e811061289557fe5b60200201907effffffffffffffffffffffffffffffffffffffffffffffffffffffffffffff191690817effffffffffffffffffffffffffffffffffffffffffffffffffffffffffffff1916815250508080600101915050612869565b50818484815181106128ff57fe5b60200260200101819052505050808060010191505061272f565b50809250505090565b60285434101561299a576040517f08c379a00000000000000000000000000000000000000000000000000000000081526004018080602001828103825260148152602001807f696e73756666696369656e742062616c616e636500000000000000000000000081525060200191505060405180910390fd5b602654815114612a12576040517f08c379a000000000000000000000000000000000000000000000000000000000815260040180806020018281038252600c8152602001807f496e76616c69642068617368000000000000000000000000000000000000000081525060200191505060405180910390fd5b6000829080600181540180825580915050906001820390600052602060002001600090919290919091509080519060200190612a4f92919061303b565b5050806020836040518082805190602001908083835b60208310612a885780518252602082019150602081019050602083039250612a65565b6001836020036101000a03801982511681845116808217855250505050505090500191505090815260200160405180910390209080519060200190612ace92919061303b565b50612ad881612e9c565b602b600081548092919060010191905055505050565b602c5481565b8060298190555050565b60008080549050905090565b606060006022836040518082805190602001908083835b60208310612b445780518252602082019150602081019050602083039250612b21565b6001836020036101000a03801982511681845116808217855250505050505090500191505090815260200160405180910390206001016022846040518082805190602001908083835b60208310612bb05780518252602082019150602081019050602083039250612b8d565b6001836020036101000a038019825116818451168082178552505050505050905001915050908152602001604051809103902060000154818054600181600116156101000203166002900480601f016020809104026020016040519081016040528092919081815260200182805460018160011615610100020316600290048015612c7c5780601f10612c5157610100808354040283529160200191612c7c565b820191906000526020600020905b815481529060010190602001808311612c5f57829003601f168201915b5050505050915091509150915091565b60606020826040518082805190602001908083835b60208310612cc45780518252602082019150602081019050602083039250612ca1565b6001836020036101000a03801982511681845116808217855250505050505090500191505090815260200160405180910390208054600181600116156101000203166002900480601f016020809104026020016040519081016040528092919081815260200182805460018160011615610100020316600290048015612d8b5780601f10612d6057610100808354040283529160200191612d8b565b820191906000526020600020905b815481529060010190602001808311612d6e57829003601f168201915b50505050509050919050565b60008090505b6005811015612dd15760158160058110612db357fe5b01600081548092919060010191905055508080600101915050612d9d565b5060008090505b6005811015612e9857600560158260058110612df057fe5b015411612dfc57612e8b565b606082905060008090505b602e811015612e7057818181518110612e1c57fe5b602001015160f81c60f81b60018460058110612e3457fe5b6002020182602e8110612e4357fe5b602091828204019190066101000a81548160ff021916908360f81c02179055508080600101915050612e07565b50600160158360058110612e8057fe5b018190555050612e98565b8080600101915050612dd8565b5050565b60008090505b6005811015612ed657601a8160058110612eb857fe5b01600081548092919060010191905055508080600101915050612ea2565b5060008090505b6005811015612f9d576005601a8260058110612ef557fe5b015411612f0157612f90565b606082905060008090505b602e811015612f7557818181518110612f2157fe5b602001015160f81c60f81b600b8460058110612f3957fe5b6002020182602e8110612f4857fe5b602091828204019190066101000a81548160ff021916908360f81c02179055508080600101915050612f0c565b506001601a8360058110612f8557fe5b018190555050612f9d565b8080600101915050612edd565b5050565b604051806040016040528060008152602001606081525090565b828054600181600116156101000203166002900490600052602060002090601f016020900481019282601f10612ffc57805160ff191683800117855561302a565b8280016001018555821561302a579182015b8281111561302957825182559160200191906001019061300e565b5b50905061303791906131fd565b5090565b828054600181600116156101000203166002900490600052602060002090601f016020900481019282601f1061307c57805160ff19168380011785556130aa565b828001600101855582156130aa579182015b828111156130a957825182559160200191906001019061308e565b5b5090506130b791906131fd565b5090565b604051806105c00160405280602e90602082028038833980820191505090505090565b604051806105c00160405280602e90602082028038833980820191505090505090565b828054600181600116156101000203166002900490600052602060002090601f016020900481019282601f1061313a5780548555613177565b8280016001018555821561317757600052602060002091601f016020900482015b8281111561317657825482559160010191906001019061315b565b5b50905061318491906131fd565b5090565b50805460018160011615610100020316600290046000825580601f106131ae57506131cd565b601f0160209004906000526020600020908101906131cc91906131fd565b5b50565b6040518060a001604052806005905b6131e76130bb565b8152602001906001900390816131df5790505090565b61321f91905b8082111561321b576000816000905550600101613203565b5090565b9056fea265627a7a723158205bea6ba6230fb6cee807143a72ccdf1dd3334c4989b6927bab3e4cbf79dd458664736f6c63430005100032",
  "source": "pragma solidity ^0.5.16;\r\ncontract MyContract{\r\n    \r\n    struct reviewFile{\r\n        uint rating; // should be a number between 0 to 100\r\n        string reviewFile_hash;\r\n    }\r\n    \r\n    struct review{\r\n        address reviewer;\r\n        string review_hash;\r\n    }\r\n    \r\n    string[] public products; //stores name of product in array\r\n    byte[46][5] latest5Reviews;\r\n    byte[46][5] latest5Products;\r\n    uint[5] last5ReviewRank;\r\n    uint[5] last5ProductRank;\r\n    mapping(address => string) users; // stores hash of userdetails file with metmask address\r\n    mapping(string => string) product_hash;\r\n    address payable owner;\r\n    mapping(string => reviewFile) reviewFileByProduct; //mapping from product to review\r\n    mapping(string => review[]) reviewsByProduct; //mapping from product to user to review\r\n    mapping(address => string[]) reviewerToProduct; //mapping from reviewer to product which is reviewed by reviewer\r\n    mapping(address => string[]) reviewerToReview; //store reviews which are given by reviewer\r\n    uint ipfs_length=46;\r\n    mapping(address => uint) points;\r\n    uint balanceRequiredForProductOwner;\r\n    uint balanceRequiredForReviewr;\r\n    uint8 pointsPerReview;\r\n    uint public totalProduct;\r\n    uint public totalReview;\r\n    \r\n    event Reviewstored(string);\r\n    // event check_ij(uint,uint);\r\n    \r\n    modifier onlyOwner{\r\n        require(msg.sender == owner);// Only allow owner to delete a product\r\n        _;\r\n    }\r\n    \r\n    constructor() payable public{\r\n       owner = msg.sender;\r\n       totalReview = 0;\r\n       totalProduct = 0;\r\n       for(uint i=0;i<5;i++){\r\n            last5ReviewRank[i]=5;\r\n            last5ProductRank[i]=5;\r\n       }\r\n       pointsPerReview = 25;\r\n    }\r\n    \r\n    function change_ipfs_length(uint8 _length) public {\r\n        ipfs_length=_length;\r\n    }\r\n    \r\n    function getProductHash(string memory name) public view returns(string memory){\r\n        return product_hash[name];\r\n    }\r\n    \r\n    function getBalance() public view returns(uint){\r\n        return address(this).balance;\r\n    }\r\n    \r\n    function getProductLength() public view returns(uint){\r\n        return products.length;\r\n    }\r\n    \r\n    function getUserProfile() public view returns(string memory){\r\n        return users[msg.sender];\r\n    }\r\n    \r\n    function setUserProfile(string memory userDetailFileHash) public {\r\n        users[msg.sender] = userDetailFileHash;\r\n    }\r\n    \r\n    function setBalanceRequiredForProductOwner(uint value) public{ //access modifier need to be set onlyOwner\r\n        balanceRequiredForProductOwner = value;\r\n    }\r\n    \r\n    function setBalanceRequiredForReviewr(uint value) public{ //access modifier need to be set onlyOwner\r\n        balanceRequiredForReviewr = value;\r\n    }\r\n    \r\n    function setPointsPerReview(uint8 value) public{ //access modifier need to be set onlyOwner\r\n        pointsPerReview = value;\r\n    }\r\n    \r\n    function getBalanceRequiredForProductOwner() public view returns(uint){\r\n        return balanceRequiredForProductOwner;\r\n    }\r\n    \r\n    function getBalanceRequiredForReviewr() public view returns(uint){\r\n        return balanceRequiredForReviewr;\r\n    }\r\n    \r\n    function getPointsPerReview() public view returns(uint){\r\n        return pointsPerReview;\r\n    }\r\n    \r\n    function getProducts() public view returns(byte[46][] memory){\r\n        uint length=products.length;\r\n        byte[46][] memory productHash = new byte[46][](length);\r\n        for(uint i=0;i<length;i++){\r\n            byte[46] memory temp;\r\n            bytes memory product_hash_inBytes = bytes(product_hash[products[i]]);\r\n            for(uint j=0;j<46;j++){\r\n                temp[j]=product_hash_inBytes[j];\r\n            }\r\n            productHash[i]=temp;\r\n        }\r\n        return productHash;\r\n    }\r\n    \r\n    function addProductHashToLatest5(string memory _product_hash) private {\r\n        for(uint i=0;i<5;i++)\r\n            last5ProductRank[i]++;\r\n        for(uint i=0;i<5;i++){\r\n            if(last5ProductRank[i] <= 5)\r\n                continue;\r\n            bytes memory b = bytes(_product_hash);\r\n            for(uint j=0;j<46;j++)\r\n                latest5Products[i][j]=b[j];\r\n            last5ProductRank[i]=1;\r\n            break;\r\n        }\r\n    }\r\n    \r\n    function addProduct(string memory _product_name,string memory _ipfs_hash) public payable{\r\n        require(msg.value >= balanceRequiredForProductOwner,\"insufficient balance\"); // just to save network from fraud products some nominal amount\r\n        require(bytes(_ipfs_hash).length == ipfs_length,\"Invalid hash\");\r\n        products.push(_product_name);\r\n        product_hash[_product_name]=_ipfs_hash;\r\n        addProductHashToLatest5(_ipfs_hash);\r\n        totalProduct++;\r\n    }\r\n    \r\n    function deleteProduct(string memory ipfs_hash) public onlyOwner{\r\n        for(uint i=0;i<products.length;i++){\r\n            if(keccak256(bytes(products[i])) == keccak256(bytes(ipfs_hash))){\r\n                products[i]=products[products.length-1];\r\n                delete products[products.length-1];\r\n            }\r\n        }\r\n    }\r\n    \r\n    function getLatest5Products() public view returns(byte[46][5] memory){\r\n        return latest5Products;\r\n    }\r\n    \r\n    function checkIfAlreadyReviewed(string memory _product_name) public view returns(bool){\r\n        string[] memory temp=reviewerToProduct[msg.sender];\r\n        bytes memory b = bytes(_product_name);\r\n        for(uint i=0;i<temp.length;i++){\r\n            bytes memory c = bytes(temp[i]);\r\n            if(keccak256(c) == keccak256(b))\r\n                return true;\r\n        }\r\n        return false;\r\n    }\r\n    \r\n    function addReviewHashToLatest5(string memory _review_hash) private {\r\n        for(uint i=0;i<5;i++)\r\n            last5ReviewRank[i]++;\r\n        for(uint i=0;i<5;i++){\r\n            if(last5ReviewRank[i] <= 5)\r\n                continue;\r\n            bytes memory b = bytes(_review_hash);\r\n            for(uint j=0;j<46;j++)\r\n                latest5Reviews[i][j]=b[j];\r\n            last5ReviewRank[i]=1;\r\n            break;\r\n        }\r\n    }\r\n    \r\n    function addReview(string memory _product_name,string memory _reviewFile_hash,string memory _review_hash,uint _rating) public {\r\n        //balance need to check in front_end\r\n        require(bytes(_review_hash).length == ipfs_length,\"Invalid hash of review\");\r\n        require(bytes(_reviewFile_hash).length == ipfs_length,\"Invalid hash of reviewfile\");\r\n        require(bytes(product_hash[_product_name]).length > 0,\"This product does not exist\");\r\n        uint current_rating = reviewFileByProduct[_product_name].rating;\r\n        uint length=reviewsByProduct[_product_name].length;\r\n        uint updated_rating = (current_rating*length + _rating)/(length+1);\r\n        reviewFile memory temp = reviewFile(updated_rating,_reviewFile_hash);\r\n        reviewFileByProduct[_product_name]=temp;\r\n        reviewsByProduct[_product_name].push(review(msg.sender,_review_hash));\r\n        addReviewHashToLatest5(_review_hash);\r\n        points[msg.sender] += pointsPerReview;\r\n        reviewerToProduct[msg.sender].push(_product_name);\r\n        reviewerToReview[msg.sender].push(_review_hash);\r\n        totalReview++;\r\n        emit Reviewstored(\"Review stored\");\r\n    }\r\n    \r\n    function getProductReviewFile(string memory _product_name) public view returns(string memory,uint){\r\n        return (reviewFileByProduct[_product_name].reviewFile_hash,reviewFileByProduct[_product_name].rating);\r\n    }\r\n    \r\n    function getAllTheReviewsForProduct(string memory _product_name) public view returns(byte[46][] memory,address[] memory){\r\n        uint length=reviewsByProduct[_product_name].length;\r\n        byte[46][] memory reviewsOfProduct = new byte[46][](length);\r\n        address[] memory reviewers = new address[](length);\r\n        for(uint i=0;i<length;i++){\r\n            byte[46] memory temp;\r\n            bytes memory review_hash_inBytes = bytes(reviewsByProduct[_product_name][i].review_hash);\r\n            reviewers[i] = (reviewsByProduct[_product_name][i].reviewer);\r\n            for(uint j=0;j<46;j++){\r\n                temp[j]=review_hash_inBytes[j];\r\n            }\r\n            reviewsOfProduct[i]=temp;\r\n        }\r\n        return(reviewsOfProduct,reviewers);\r\n    }\r\n    \r\n    function getAllReviewsGivenByUser() public view returns(byte[46][] memory){\r\n        address sender = msg.sender;\r\n        string[] memory temp = reviewerToProduct[sender];\r\n        uint length=temp.length;\r\n        byte[46][] memory reviewsOfUser = new byte[46][](length);\r\n        for(uint i=0;i<length;i++){\r\n            bytes memory b = bytes(temp[i]);\r\n            for(uint j=0;j<46;j++)\r\n                reviewsOfUser[i][j] = b[j];\r\n        }\r\n        return reviewsOfUser;\r\n    }\r\n    \r\n    function getLatest5Reviews() public view returns(byte[46][5] memory){\r\n       return latest5Reviews; \r\n    }\r\n    \r\n    function getPointsOfUser() public view returns(uint){\r\n        return points[msg.sender];\r\n    }\r\n    \r\n    function redeemPrice() public returns(string memory){\r\n        require(points[msg.sender] >= 100,\"Insufficient funds\");\r\n        points[msg.sender] -= 100;\r\n        return(\"A coupen code\");\r\n    }\r\n}",
  "sourcePath": "H:/download/review-system/contracts/myContract.sol",
  "compiler": {
    "name": "solc",
    "version": "0.5.16+commit.9c3226ce.Emscripten.clang"
  },
  "schemaVersion": "3.3.3",
  "updatedAt": "2021-04-08T12:42:50.563Z",
  "networkType": "ethereum",
  "devdoc": {
    "methods": {}
  },
  "userdoc": {
    "methods": {}
  }
}