{
  "contractName": "MyContract",
  "abi": [
    {
      "inputs": [],
      "payable": true,
      "stateMutability": "payable",
      "type": "constructor"
    },
    {
      "anonymous": false,
      "inputs": [
        {
          "indexed": false,
          "internalType": "string",
          "name": "",
          "type": "string"
        }
      ],
      "name": "Reviewstored",
      "type": "event"
    },
    {
      "constant": true,
      "inputs": [
        {
          "internalType": "uint256",
          "name": "",
          "type": "uint256"
        }
      ],
      "name": "products",
      "outputs": [
        {
          "internalType": "string",
          "name": "",
          "type": "string"
        }
      ],
      "payable": false,
      "stateMutability": "view",
      "type": "function"
    },
    {
      "constant": true,
      "inputs": [],
      "name": "totalProduct",
      "outputs": [
        {
          "internalType": "uint256",
          "name": "",
          "type": "uint256"
        }
      ],
      "payable": false,
      "stateMutability": "view",
      "type": "function"
    },
    {
      "constant": true,
      "inputs": [],
      "name": "totalReview",
      "outputs": [
        {
          "internalType": "uint256",
          "name": "",
          "type": "uint256"
        }
      ],
      "payable": false,
      "stateMutability": "view",
      "type": "function"
    },
    {
      "constant": false,
      "inputs": [
        {
          "internalType": "uint8",
          "name": "_length",
          "type": "uint8"
        }
      ],
      "name": "change_ipfs_length",
      "outputs": [],
      "payable": false,
      "stateMutability": "nonpayable",
      "type": "function"
    },
    {
      "constant": true,
      "inputs": [
        {
          "internalType": "string",
          "name": "name",
          "type": "string"
        }
      ],
      "name": "getProductHash",
      "outputs": [
        {
          "internalType": "string",
          "name": "",
          "type": "string"
        }
      ],
      "payable": false,
      "stateMutability": "view",
      "type": "function"
    },
    {
      "constant": true,
      "inputs": [],
      "name": "getBalance",
      "outputs": [
        {
          "internalType": "uint256",
          "name": "",
          "type": "uint256"
        }
      ],
      "payable": false,
      "stateMutability": "view",
      "type": "function"
    },
    {
      "constant": true,
      "inputs": [],
      "name": "getProductLength",
      "outputs": [
        {
          "internalType": "uint256",
          "name": "",
          "type": "uint256"
        }
      ],
      "payable": false,
      "stateMutability": "view",
      "type": "function"
    },
    {
      "constant": true,
      "inputs": [],
      "name": "getUserProfile",
      "outputs": [
        {
          "internalType": "string",
          "name": "",
          "type": "string"
        }
      ],
      "payable": false,
      "stateMutability": "view",
      "type": "function"
    },
    {
      "constant": false,
      "inputs": [
        {
          "internalType": "string",
          "name": "userDetailFileHash",
          "type": "string"
        }
      ],
      "name": "setUserProfile",
      "outputs": [],
      "payable": false,
      "stateMutability": "nonpayable",
      "type": "function"
    },
    {
      "constant": false,
      "inputs": [
        {
          "internalType": "uint256",
          "name": "value",
          "type": "uint256"
        }
      ],
      "name": "setBalanceRequiredForProductOwner",
      "outputs": [],
      "payable": false,
      "stateMutability": "nonpayable",
      "type": "function"
    },
    {
      "constant": false,
      "inputs": [
        {
          "internalType": "uint256",
          "name": "value",
          "type": "uint256"
        }
      ],
      "name": "setBalanceRequiredForReviewr",
      "outputs": [],
      "payable": false,
      "stateMutability": "nonpayable",
      "type": "function"
    },
    {
      "constant": false,
      "inputs": [
        {
          "internalType": "uint8",
          "name": "value",
          "type": "uint8"
        }
      ],
      "name": "setPointsPerReview",
      "outputs": [],
      "payable": false,
      "stateMutability": "nonpayable",
      "type": "function"
    },
    {
      "constant": true,
      "inputs": [],
      "name": "getBalanceRequiredForProductOwner",
      "outputs": [
        {
          "internalType": "uint256",
          "name": "",
          "type": "uint256"
        }
      ],
      "payable": false,
      "stateMutability": "view",
      "type": "function"
    },
    {
      "constant": true,
      "inputs": [],
      "name": "getBalanceRequiredForReviewr",
      "outputs": [
        {
          "internalType": "uint256",
          "name": "",
          "type": "uint256"
        }
      ],
      "payable": false,
      "stateMutability": "view",
      "type": "function"
    },
    {
      "constant": true,
      "inputs": [],
      "name": "getPointsPerReview",
      "outputs": [
        {
          "internalType": "uint256",
          "name": "",
          "type": "uint256"
        }
      ],
      "payable": false,
      "stateMutability": "view",
      "type": "function"
    },
    {
      "constant": true,
      "inputs": [],
      "name": "getProducts",
      "outputs": [
        {
          "internalType": "bytes1[46][]",
          "name": "",
          "type": "bytes1[46][]"
        }
      ],
      "payable": false,
      "stateMutability": "view",
      "type": "function"
    },
    {
      "constant": false,
      "inputs": [
        {
          "internalType": "string",
          "name": "_product_name",
          "type": "string"
        },
        {
          "internalType": "string",
          "name": "_ipfs_hash",
          "type": "string"
        }
      ],
      "name": "addProduct",
      "outputs": [],
      "payable": true,
      "stateMutability": "payable",
      "type": "function"
    },
    {
      "constant": false,
      "inputs": [
        {
          "internalType": "string",
          "name": "ipfs_hash",
          "type": "string"
        }
      ],
      "name": "deleteProduct",
      "outputs": [],
      "payable": false,
      "stateMutability": "nonpayable",
      "type": "function"
    },
    {
      "constant": true,
      "inputs": [],
      "name": "getLatest5Products",
      "outputs": [
        {
          "internalType": "bytes1[46][5]",
          "name": "",
          "type": "bytes1[46][5]"
        }
      ],
      "payable": false,
      "stateMutability": "view",
      "type": "function"
    },
    {
      "constant": true,
      "inputs": [
        {
          "internalType": "string",
          "name": "_product_name",
          "type": "string"
        }
      ],
      "name": "checkIfAlreadyReviewed",
      "outputs": [
        {
          "internalType": "bool",
          "name": "",
          "type": "bool"
        }
      ],
      "payable": false,
      "stateMutability": "view",
      "type": "function"
    },
    {
      "constant": false,
      "inputs": [
        {
          "internalType": "string",
          "name": "_product_name",
          "type": "string"
        },
        {
          "internalType": "string",
          "name": "_reviewFile_hash",
          "type": "string"
        },
        {
          "internalType": "string",
          "name": "_review_hash",
          "type": "string"
        },
        {
          "internalType": "uint256",
          "name": "_rating",
          "type": "uint256"
        }
      ],
      "name": "addReview",
      "outputs": [],
      "payable": false,
      "stateMutability": "nonpayable",
      "type": "function"
    },
    {
      "constant": true,
      "inputs": [
        {
          "internalType": "string",
          "name": "_product_name",
          "type": "string"
        }
      ],
      "name": "getProductReviewFile",
      "outputs": [
        {
          "internalType": "string",
          "name": "",
          "type": "string"
        },
        {
          "internalType": "uint256",
          "name": "",
          "type": "uint256"
        }
      ],
      "payable": false,
      "stateMutability": "view",
      "type": "function"
    },
    {
      "constant": true,
      "inputs": [
        {
          "internalType": "string",
          "name": "_product_name",
          "type": "string"
        }
      ],
      "name": "getAllTheReviewsForProduct",
      "outputs": [
        {
          "internalType": "bytes1[46][]",
          "name": "",
          "type": "bytes1[46][]"
        },
        {
          "internalType": "address[]",
          "name": "",
          "type": "address[]"
        }
      ],
      "payable": false,
      "stateMutability": "view",
      "type": "function"
    },
    {
      "constant": true,
      "inputs": [],
      "name": "getAllReviewsGivenByUser",
      "outputs": [
        {
          "internalType": "bytes1[46][]",
          "name": "",
          "type": "bytes1[46][]"
        }
      ],
      "payable": false,
      "stateMutability": "view",
      "type": "function"
    },
    {
      "constant": true,
      "inputs": [],
      "name": "getLatest5Reviews",
      "outputs": [
        {
          "internalType": "bytes1[46][5]",
          "name": "",
          "type": "bytes1[46][5]"
        }
      ],
      "payable": false,
      "stateMutability": "view",
      "type": "function"
    },
    {
      "constant": false,
      "inputs": [],
      "name": "redeemPrice",
      "outputs": [
        {
          "internalType": "string",
          "name": "",
          "type": "string"
        }
      ],
      "payable": false,
      "stateMutability": "nonpayable",
      "type": "function"
    }
  ],
  "bytecode": "0x6080604052602e60265533602160006101000a81548173ffffffffffffffffffffffffffffffffffffffff021916908373ffffffffffffffffffffffffffffffffffffffff1602179055506000602c819055506000602b8190555060008090505b600581101561009e5760056015826005811061007857fe5b01819055506005601a826005811061008c57fe5b01819055508080600101915050610060565b506131ca80620000af6000396000f3fe60806040526004361061017f5760003560e01c80637a233fb3116100d1578063c29b2f201161008a578063d563f05f11610064578063d563f05f14610e5f578063f2d6181914610e9a578063f5a2cd8c14610ec5578063fd0bce071461100d5761017f565b8063c29b2f2014610c55578063ca2efb5514610ce2578063ce1006f114610e345761017f565b80637a233fb31461096d5780637acc0b20146109fd5780637ae2a75214610ab15780637d08f73c14610b275780639dc1c11414610b9d578063baa2b75014610bc85761017f565b80633cf35bb21161013e5780636401c30c116101185780636401c30c14610712578063654c32de146107da5780636f61c7441461081557806372139d9a146108a55761017f565b80633cf35bb2146104815780634c2306bc14610607578063566bceef146106e75761017f565b8062f63ce214610184578062ff35c5146101af57806312065fe0146101ed57806314518e191461021857806314a1a4d214610418578063360d5c1c14610456575b600080fd5b34801561019057600080fd5b5061019961114e565b6040518082815260200191505060405180910390f35b3480156101bb57600080fd5b506101eb600480360360208110156101d257600080fd5b81019080803560ff169060200190929190505050611168565b005b3480156101f957600080fd5b50610202611175565b6040518082815260200191505060405180910390f35b34801561022457600080fd5b506104166004803603608081101561023b57600080fd5b810190808035906020019064010000000081111561025857600080fd5b82018360208201111561026a57600080fd5b8035906020019184600183028401116401000000008311171561028c57600080fd5b91908080601f016020809104026020016040519081016040528093929190818152602001838380828437600081840152601f19601f820116905080830192505050505050509192919290803590602001906401000000008111156102ef57600080fd5b82018360208201111561030157600080fd5b8035906020019184600183028401116401000000008311171561032357600080fd5b91908080601f016020809104026020016040519081016040528093929190818152602001838380828437600081840152601f19601f8201169050808301925050505050505091929192908035906020019064010000000081111561038657600080fd5b82018360208201111561039857600080fd5b803590602001918460018302840111640100000000831117156103ba57600080fd5b91908080601f016020809104026020016040519081016040528093929190818152602001838380828437600081840152601f19601f8201169050808301925050505050505091929192908035906020019092919050505061117d565b005b34801561042457600080fd5b506104546004803603602081101561043b57600080fd5b81019080803560ff169060200190929190505050611814565b005b34801561046257600080fd5b5061046b611832565b6040518082815260200191505060405180910390f35b34801561048d57600080fd5b50610547600480360360208110156104a457600080fd5b81019080803590602001906401000000008111156104c157600080fd5b8201836020820111156104d357600080fd5b803590602001918460018302840111640100000000831117156104f557600080fd5b91908080601f016020809104026020016040519081016040528093929190818152602001838380828437600081840152601f19601f82011690508083019250505050505050919291929050505061183c565b6040518080602001806020018381038352858181518152602001915080516000925b818410156105b25782846020026020010151602e60200280838360005b838110156105a1578082015181840152602081019050610586565b505050509050019260010192610569565b92505050838103825284818151815260200191508051906020019060200280838360005b838110156105f15780820151818401526020810190506105d6565b5050505090500194505050505060405180910390f35b34801561061357600080fd5b506106cd6004803603602081101561062a57600080fd5b810190808035906020019064010000000081111561064757600080fd5b82018360208201111561065957600080fd5b8035906020019184600183028401116401000000008311171561067b57600080fd5b91908080601f016020809104026020016040519081016040528093929190818152602001838380828437600081840152601f19601f820116905080830192505050505050509192919290505050611c0c565b604051808215151515815260200191505060405180910390f35b3480156106f357600080fd5b506106fc611d9b565b6040518082815260200191505060405180910390f35b34801561071e57600080fd5b506107d86004803603602081101561073557600080fd5b810190808035906020019064010000000081111561075257600080fd5b82018360208201111561076457600080fd5b8035906020019184600183028401116401000000008311171561078657600080fd5b91908080601f016020809104026020016040519081016040528093929190818152602001838380828437600081840152601f19601f820116905080830192505050505050509192919290505050611da1565b005b3480156107e657600080fd5b50610813600480360360208110156107fd57600080fd5b8101908080359060200190929190505050611df8565b005b34801561082157600080fd5b5061082a611e02565b6040518080602001828103825283818151815260200191508051906020019080838360005b8381101561086a57808201518184015260208101905061084f565b50505050905090810190601f1680156108975780820380516001836020036101000a031916815260200191505b509250505060405180910390f35b3480156108b157600080fd5b5061096b600480360360208110156108c857600080fd5b81019080803590602001906401000000008111156108e557600080fd5b8201836020820111156108f757600080fd5b8035906020019184600183028401116401000000008311171561091957600080fd5b91908080601f016020809104026020016040519081016040528093929190818152602001838380828437600081840152601f19601f820116905080830192505050505050509192919290505050611ee1565b005b34801561097957600080fd5b5061098261206e565b6040518080602001828103825283818151815260200191508051906020019080838360005b838110156109c25780820151818401526020810190506109a7565b50505050905090810190601f1680156109ef5780820380516001836020036101000a031916815260200191505b509250505060405180910390f35b348015610a0957600080fd5b50610a3660048036036020811015610a2057600080fd5b81019080803590602001909291905050506121af565b6040518080602001828103825283818151815260200191508051906020019080838360005b83811015610a76578082015181840152602081019050610a5b565b50505050905090810190601f168015610aa35780820380516001836020036101000a031916815260200191505b509250505060405180910390f35b348015610abd57600080fd5b50610ac6612268565b604051808260056000925b81841015610b175782846020020151602e60200280838360005b83811015610b06578082015181840152602081019050610aeb565b505050509050019260010192610ad1565b9250505091505060405180910390f35b348015610b3357600080fd5b50610b3c612330565b604051808260056000925b81841015610b8d5782846020020151602e60200280838360005b83811015610b7c578082015181840152602081019050610b61565b505050509050019260010192610b47565b9250505091505060405180910390f35b348015610ba957600080fd5b50610bb26123f8565b6040518082815260200191505060405180910390f35b348015610bd457600080fd5b50610bdd612402565b60405180806020018281038252838181518152602001915080516000925b81841015610c445782846020026020010151602e60200280838360005b83811015610c33578082015181840152602081019050610c18565b505050509050019260010192610bfb565b925050509250505060405180910390f35b348015610c6157600080fd5b50610c6a612652565b60405180806020018281038252838181518152602001915080516000925b81841015610cd15782846020026020010151602e60200280838360005b83811015610cc0578082015181840152602081019050610ca5565b505050509050019260010192610c88565b925050509250505060405180910390f35b610e3260048036036040811015610cf857600080fd5b8101908080359060200190640100000000811115610d1557600080fd5b820183602082011115610d2757600080fd5b80359060200191846001830284011164010000000083111715610d4957600080fd5b91908080601f016020809104026020016040519081016040528093929190818152602001838380828437600081840152601f19601f82011690508083019250505050505050919291929080359060200190640100000000811115610dac57600080fd5b820183602082011115610dbe57600080fd5b80359060200191846001830284011164010000000083111715610de057600080fd5b91908080601f016020809104026020016040519081016040528093929190818152602001838380828437600081840152601f19601f820116905080830192505050505050509192919290505050612895565b005b348015610e4057600080fd5b50610e49612a61565b6040518082815260200191505060405180910390f35b348015610e6b57600080fd5b50610e9860048036036020811015610e8257600080fd5b8101908080359060200190929190505050612a67565b005b348015610ea657600080fd5b50610eaf612a71565b6040518082815260200191505060405180910390f35b348015610ed157600080fd5b50610f8b60048036036020811015610ee857600080fd5b8101908080359060200190640100000000811115610f0557600080fd5b820183602082011115610f1757600080fd5b80359060200191846001830284011164010000000083111715610f3957600080fd5b91908080601f016020809104026020016040519081016040528093929190818152602001838380828437600081840152601f19601f820116905080830192505050505050509192919290505050612a7d565b6040518080602001838152602001828103825284818151815260200191508051906020019080838360005b83811015610fd1578082015181840152602081019050610fb6565b50505050905090810190601f168015610ffe5780820380516001836020036101000a031916815260200191505b50935050505060405180910390f35b34801561101957600080fd5b506110d36004803603602081101561103057600080fd5b810190808035906020019064010000000081111561104d57600080fd5b82018360208201111561105f57600080fd5b8035906020019184600183028401116401000000008311171561108157600080fd5b91908080601f016020809104026020016040519081016040528093929190818152602001838380828437600081840152601f19601f820116905080830192505050505050509192919290505050612bff565b6040518080602001828103825283818151815260200191508051906020019080838360005b838110156111135780820151818401526020810190506110f8565b50505050905090810190601f1680156111405780820380516001836020036101000a031916815260200191505b509250505060405180910390f35b6000602a60009054906101000a900460ff1660ff16905090565b8060ff1660268190555050565b600047905090565b6026548251146111f5576040517f08c379a00000000000000000000000000000000000000000000000000000000081526004018080602001828103825260168152602001807f496e76616c69642068617368206f66207265766965770000000000000000000081525060200191505060405180910390fd5b60265483511461126d576040517f08c379a000000000000000000000000000000000000000000000000000000000815260040180806020018281038252601a8152602001807f496e76616c69642068617368206f662072657669657766696c6500000000000081525060200191505060405180910390fd5b60006020856040518082805190602001908083835b602083106112a55780518252602082019150602081019050602083039250611282565b6001836020036101000a038019825116818451168082178552505050505050905001915050908152602001604051809103902080546001816001161561010002031660029004905011611360576040517f08c379a000000000000000000000000000000000000000000000000000000000815260040180806020018281038252601b8152602001807f546869732070726f6475637420646f6573206e6f74206578697374000000000081525060200191505060405180910390fd5b60006022856040518082805190602001908083835b602083106113985780518252602082019150602081019050602083039250611375565b6001836020036101000a038019825116818451168082178552505050505050905001915050908152602001604051809103902060000154905060006023866040518082805190602001908083835b6020831061140957805182526020820191506020810190506020830392506113e6565b6001836020036101000a038019825116818451168082178552505050505050905001915050908152602001604051809103902080549050905060006001820184838502018161145457fe5b04905061145f612f14565b6040518060400160405280838152602001888152509050806022896040518082805190602001908083835b602083106114ad578051825260208201915060208101905060208303925061148a565b6001836020036101000a0380198251168184511680821785525050505050509050019150509081526020016040518091039020600082015181600001556020820151816001019080519060200190611506929190612f2e565b509050506023886040518082805190602001908083835b60208310611540578051825260208201915060208101905060208303925061151d565b6001836020036101000a038019825116818451168082178552505050505050905001915050908152602001604051809103902060405180604001604052803373ffffffffffffffffffffffffffffffffffffffff168152602001888152509080600181540180825580915050906001820390600052602060002090600202016000909192909190915060008201518160000160006101000a81548173ffffffffffffffffffffffffffffffffffffffff021916908373ffffffffffffffffffffffffffffffffffffffff160217905550602082015181600101908051906020019061162c929190612f2e565b5050505061163986612d0a565b602a60009054906101000a900460ff1660ff16602760003373ffffffffffffffffffffffffffffffffffffffff1673ffffffffffffffffffffffffffffffffffffffff16815260200190815260200160002060008282540192505081905550602460003373ffffffffffffffffffffffffffffffffffffffff1673ffffffffffffffffffffffffffffffffffffffff168152602001908152602001600020889080600181540180825580915050906001820390600052602060002001600090919290919091509080519060200190611712929190612fae565b5050602560003373ffffffffffffffffffffffffffffffffffffffff1673ffffffffffffffffffffffffffffffffffffffff16815260200190815260200160002086908060018154018082558091505090600182039060005260206000200160009091929091909150908051906020019061178e929190612fae565b5050602c600081548092919060010191905055507f400a3c026abff6f11f172c1b3358732ecff69730d7bf75ab5713feba40ea333460405180806020018281038252600d8152602001807f5265766965772073746f7265640000000000000000000000000000000000000081525060200191505060405180910390a15050505050505050565b80602a60006101000a81548160ff021916908360ff16021790555050565b6000602954905090565b60608060006023846040518082805190602001908083835b602083106118775780518252602082019150602081019050602083039250611854565b6001836020036101000a03801982511681845116808217855250505050505090500191505090815260200160405180910390208054905090506060816040519080825280602002602001820160405280156118ec57816020015b6118d961302e565b8152602001906001900390816118d15790505b5090506060826040519080825280602002602001820160405280156119205781602001602082028038833980820191505090505b50905060008090505b83811015611bfd57611939613051565b60606023896040518082805190602001908083835b60208310611971578051825260208201915060208101905060208303925061194e565b6001836020036101000a038019825116818451168082178552505050505050905001915050908152602001604051809103902083815481106119af57fe5b90600052602060002090600202016001018054600181600116156101000203166002900480601f016020809104026020016040519081016040528092919081815260200182805460018160011615610100020316600290048015611a545780601f10611a2957610100808354040283529160200191611a54565b820191906000526020600020905b815481529060010190602001808311611a3757829003601f168201915b505050505090506023896040518082805190602001908083835b60208310611a915780518252602082019150602081019050602083039250611a6e565b6001836020036101000a03801982511681845116808217855250505050505090500191505090815260200160405180910390208381548110611acf57fe5b906000526020600020906002020160000160009054906101000a900473ffffffffffffffffffffffffffffffffffffffff16848481518110611b0d57fe5b602002602001019073ffffffffffffffffffffffffffffffffffffffff16908173ffffffffffffffffffffffffffffffffffffffff168152505060008090505b602e811015611bd557818181518110611b6257fe5b602001015160f81c60f81b8382602e8110611b7957fe5b60200201907effffffffffffffffffffffffffffffffffffffffffffffffffffffffffffff191690817effffffffffffffffffffffffffffffffffffffffffffffffffffffffffffff1916815250508080600101915050611b4d565b5081858481518110611be357fe5b602002602001018190525050508080600101915050611929565b50818194509450505050915091565b60006060602460003373ffffffffffffffffffffffffffffffffffffffff1673ffffffffffffffffffffffffffffffffffffffff168152602001908152602001600020805480602002602001604051908101604052809291908181526020016000905b82821015611d2b578382906000526020600020018054600181600116156101000203166002900480601f016020809104026020016040519081016040528092919081815260200182805460018160011615610100020316600290048015611d175780601f10611cec57610100808354040283529160200191611d17565b820191906000526020600020905b815481529060010190602001808311611cfa57829003601f168201915b505050505081526020019060010190611c6f565b505050509050606083905060008090505b8251811015611d8e576060838281518110611d5357fe5b60200260200101519050828051906020012081805190602001201415611d80576001945050505050611d96565b508080600101915050611d3c565b506000925050505b919050565b602b5481565b80601f60003373ffffffffffffffffffffffffffffffffffffffff1673ffffffffffffffffffffffffffffffffffffffff1681526020019081526020016000209080519060200190611df4929190612fae565b5050565b8060288190555050565b6060601f60003373ffffffffffffffffffffffffffffffffffffffff1673ffffffffffffffffffffffffffffffffffffffff1681526020019081526020016000208054600181600116156101000203166002900480601f016020809104026020016040519081016040528092919081815260200182805460018160011615610100020316600290048015611ed75780601f10611eac57610100808354040283529160200191611ed7565b820191906000526020600020905b815481529060010190602001808311611eba57829003601f168201915b5050505050905090565b602160009054906101000a900473ffffffffffffffffffffffffffffffffffffffff1673ffffffffffffffffffffffffffffffffffffffff163373ffffffffffffffffffffffffffffffffffffffff1614611f3b57600080fd5b60008090505b60008054905081101561206a57818051906020012060008281548110611f6357fe5b906000526020600020016040518082805460018160011615610100020316600290048015611fc85780601f10611fa6576101008083540402835291820191611fc8565b820191906000526020600020905b815481529060010190602001808311611fb4575b50509150506040518091039020141561205d57600060016000805490500381548110611ff057fe5b906000526020600020016000828154811061200757fe5b906000526020600020019080546001816001161561010002031660029004612030929190613074565b5060006001600080549050038154811061204657fe5b90600052602060002001600061205c91906130fb565b5b8080600101915050611f41565b5050565b60606064602760003373ffffffffffffffffffffffffffffffffffffffff1673ffffffffffffffffffffffffffffffffffffffff168152602001908152602001600020541015612126576040517f08c379a00000000000000000000000000000000000000000000000000000000081526004018080602001828103825260128152602001807f496e73756666696369656e742066756e6473000000000000000000000000000081525060200191505060405180910390fd5b6064602760003373ffffffffffffffffffffffffffffffffffffffff1673ffffffffffffffffffffffffffffffffffffffff168152602001908152602001600020600082825403925050819055506040518060400160405280600d81526020017f4120636f7570656e20636f646500000000000000000000000000000000000000815250905090565b600081815481106121bc57fe5b906000526020600020016000915090508054600181600116156101000203166002900480601f0160208091040260200160405190810160405280929190818152602001828054600181600116156101000203166002900480156122605780601f1061223557610100808354040283529160200191612260565b820191906000526020600020905b81548152906001019060200180831161224357829003601f168201915b505050505081565b612270613143565b600b600580602002604051908101604052809291906000905b8282101561232757838260020201602e806020026040519081016040528092919082602e8015612313576020028201916000905b82829054906101000a900460f81b7effffffffffffffffffffffffffffffffffffffffffffffffffffffffffffff1916815260200190600101906020826000010492830192600103820291508084116122bd5790505b505050505081526020019060010190612289565b50505050905090565b612338613143565b6001600580602002604051908101604052809291906000905b828210156123ef57838260020201602e806020026040519081016040528092919082602e80156123db576020028201916000905b82829054906101000a900460f81b7effffffffffffffffffffffffffffffffffffffffffffffffffffffffffffff1916815260200190600101906020826000010492830192600103820291508084116123855790505b505050505081526020019060010190612351565b50505050905090565b6000602854905090565b606060003390506060602460008373ffffffffffffffffffffffffffffffffffffffff1673ffffffffffffffffffffffffffffffffffffffff168152602001908152602001600020805480602002602001604051908101604052809291908181526020016000905b82821015612526578382906000526020600020018054600181600116156101000203166002900480601f0160208091040260200160405190810160405280929190818152602001828054600181600116156101000203166002900480156125125780601f106124e757610100808354040283529160200191612512565b820191906000526020600020905b8154815290600101906020018083116124f557829003601f168201915b50505050508152602001906001019061246a565b50505050905060008151905060608160405190808252806020026020018201604052801561256e57816020015b61255b61302e565b8152602001906001900390816125535790505b50905060008090505b8281101561264757606084828151811061258d57fe5b6020026020010151905060008090505b602e811015612638578181815181106125b257fe5b602001015160f81c60f81b8484815181106125c957fe5b602002602001015182602e81106125dc57fe5b60200201907effffffffffffffffffffffffffffffffffffffffffffffffffffffffffffff191690817effffffffffffffffffffffffffffffffffffffffffffffffffffffffffffff191681525050808060010191505061259d565b50508080600101915050612577565b508094505050505090565b606060008080549050905060608160405190808252806020026020018201604052801561269957816020015b61268661302e565b81526020019060019003908161267e5790505b50905060008090505b8281101561288c576126b2613051565b60606020600084815481106126c357fe5b9060005260206000200160405180828054600181600116156101000203166002900480156127285780601f10612706576101008083540402835291820191612728565b820191906000526020600020905b815481529060010190602001808311612714575b505091505090815260200160405180910390208054600181600116156101000203166002900480601f0160208091040260200160405190810160405280929190818152602001828054600181600116156101000203166002900480156127cf5780601f106127a4576101008083540402835291602001916127cf565b820191906000526020600020905b8154815290600101906020018083116127b257829003601f168201915b5050505050905060008090505b602e811015612864578181815181106127f157fe5b602001015160f81c60f81b8382602e811061280857fe5b60200201907effffffffffffffffffffffffffffffffffffffffffffffffffffffffffffff191690817effffffffffffffffffffffffffffffffffffffffffffffffffffffffffffff19168152505080806001019150506127dc565b508184848151811061287257fe5b6020026020010181905250505080806001019150506126a2565b50809250505090565b60285434101561290d576040517f08c379a00000000000000000000000000000000000000000000000000000000081526004018080602001828103825260148152602001807f696e73756666696369656e742062616c616e636500000000000000000000000081525060200191505060405180910390fd5b602654815114612985576040517f08c379a000000000000000000000000000000000000000000000000000000000815260040180806020018281038252600c8152602001807f496e76616c69642068617368000000000000000000000000000000000000000081525060200191505060405180910390fd5b60008290806001815401808255809150509060018203906000526020600020016000909192909190915090805190602001906129c2929190612fae565b5050806020836040518082805190602001908083835b602083106129fb57805182526020820191506020810190506020830392506129d8565b6001836020036101000a03801982511681845116808217855250505050505090500191505090815260200160405180910390209080519060200190612a41929190612fae565b50612a4b81612e0f565b602b600081548092919060010191905055505050565b602c5481565b8060298190555050565b60008080549050905090565b606060006022836040518082805190602001908083835b60208310612ab75780518252602082019150602081019050602083039250612a94565b6001836020036101000a03801982511681845116808217855250505050505090500191505090815260200160405180910390206001016022846040518082805190602001908083835b60208310612b235780518252602082019150602081019050602083039250612b00565b6001836020036101000a038019825116818451168082178552505050505050905001915050908152602001604051809103902060000154818054600181600116156101000203166002900480601f016020809104026020016040519081016040528092919081815260200182805460018160011615610100020316600290048015612bef5780601f10612bc457610100808354040283529160200191612bef565b820191906000526020600020905b815481529060010190602001808311612bd257829003601f168201915b5050505050915091509150915091565b60606020826040518082805190602001908083835b60208310612c375780518252602082019150602081019050602083039250612c14565b6001836020036101000a03801982511681845116808217855250505050505090500191505090815260200160405180910390208054600181600116156101000203166002900480601f016020809104026020016040519081016040528092919081815260200182805460018160011615610100020316600290048015612cfe5780601f10612cd357610100808354040283529160200191612cfe565b820191906000526020600020905b815481529060010190602001808311612ce157829003601f168201915b50505050509050919050565b60008090505b6005811015612d445760158160058110612d2657fe5b01600081548092919060010191905055508080600101915050612d10565b5060008090505b6005811015612e0b57600560158260058110612d6357fe5b015411612d6f57612dfe565b606082905060008090505b602e811015612de357818181518110612d8f57fe5b602001015160f81c60f81b60018460058110612da757fe5b6002020182602e8110612db657fe5b602091828204019190066101000a81548160ff021916908360f81c02179055508080600101915050612d7a565b50600160158360058110612df357fe5b018190555050612e0b565b8080600101915050612d4b565b5050565b60008090505b6005811015612e4957601a8160058110612e2b57fe5b01600081548092919060010191905055508080600101915050612e15565b5060008090505b6005811015612f10576005601a8260058110612e6857fe5b015411612e7457612f03565b606082905060008090505b602e811015612ee857818181518110612e9457fe5b602001015160f81c60f81b600b8460058110612eac57fe5b6002020182602e8110612ebb57fe5b602091828204019190066101000a81548160ff021916908360f81c02179055508080600101915050612e7f565b506001601a8360058110612ef857fe5b018190555050612f10565b8080600101915050612e50565b5050565b604051806040016040528060008152602001606081525090565b828054600181600116156101000203166002900490600052602060002090601f016020900481019282601f10612f6f57805160ff1916838001178555612f9d565b82800160010185558215612f9d579182015b82811115612f9c578251825591602001919060010190612f81565b5b509050612faa9190613170565b5090565b828054600181600116156101000203166002900490600052602060002090601f016020900481019282601f10612fef57805160ff191683800117855561301d565b8280016001018555821561301d579182015b8281111561301c578251825591602001919060010190613001565b5b50905061302a9190613170565b5090565b604051806105c00160405280602e90602082028038833980820191505090505090565b604051806105c00160405280602e90602082028038833980820191505090505090565b828054600181600116156101000203166002900490600052602060002090601f016020900481019282601f106130ad57805485556130ea565b828001600101855582156130ea57600052602060002091601f016020900482015b828111156130e95782548255916001019190600101906130ce565b5b5090506130f79190613170565b5090565b50805460018160011615610100020316600290046000825580601f106131215750613140565b601f01602090049060005260206000209081019061313f9190613170565b5b50565b6040518060a001604052806005905b61315a61302e565b8152602001906001900390816131525790505090565b61319291905b8082111561318e576000816000905550600101613176565b5090565b9056fea265627a7a7231582071f8d2e765c8080036d7b9aba257e1cc44a1c3ba4c655838a7de974b0c4c748b64736f6c63430005100032",
  "source": "pragma solidity ^0.5.16;\r\ncontract MyContract{\r\n    \r\n    struct reviewFile{\r\n        uint rating; // should be a number between 0 to 100\r\n        string reviewFile_hash;\r\n    }\r\n    \r\n    struct review{\r\n        address reviewer;\r\n        string review_hash;\r\n    }\r\n    \r\n    string[] public products; //stores name of product in array\r\n    byte[46][5] latest5Reviews;\r\n    byte[46][5] latest5Products;\r\n    uint[5] last5ReviewRank;\r\n    uint[5] last5ProductRank;\r\n    mapping(address => string) users; // stores hash of userdetails file with metmask address\r\n    mapping(string => string) product_hash;\r\n    address payable owner;\r\n    mapping(string => reviewFile) reviewFileByProduct; //mapping from product to review\r\n    mapping(string => review[]) reviewsByProduct; //mapping from product to user to review\r\n    mapping(address => string[]) reviewerToProduct; //mapping from reviewer to product which is reviewed by reviewer\r\n    mapping(address => string[]) reviewerToReview; //store reviews which are given by reviewer\r\n    uint ipfs_length=46;\r\n    mapping(address => uint) points;\r\n    uint balanceRequiredForProductOwner;\r\n    uint balanceRequiredForReviewr;\r\n    uint8 pointsPerReview;\r\n    uint public totalProduct;\r\n    uint public totalReview;\r\n    \r\n    event Reviewstored(string);\r\n    // event check_ij(uint,uint);\r\n    \r\n    modifier onlyOwner{\r\n        require(msg.sender == owner);// Only allow owner to delete a product\r\n        _;\r\n    }\r\n    \r\n    constructor() payable public{\r\n       owner = msg.sender;\r\n       totalReview = 0;\r\n       totalProduct = 0;\r\n       for(uint i=0;i<5;i++){\r\n            last5ReviewRank[i]=5;\r\n            last5ProductRank[i]=5;\r\n       }\r\n    }\r\n    \r\n    function change_ipfs_length(uint8 _length) public {\r\n        ipfs_length=_length;\r\n    }\r\n    \r\n    function getProductHash(string memory name) public view returns(string memory){\r\n        return product_hash[name];\r\n    }\r\n    \r\n    function getBalance() public view returns(uint){\r\n        return address(this).balance;\r\n    }\r\n    \r\n    function getProductLength() public view returns(uint){\r\n        return products.length;\r\n    }\r\n    \r\n    function getUserProfile() public view returns(string memory){\r\n        return users[msg.sender];\r\n    }\r\n    \r\n    function setUserProfile(string memory userDetailFileHash) public {\r\n        users[msg.sender] = userDetailFileHash;\r\n    }\r\n    \r\n    function setBalanceRequiredForProductOwner(uint value) public{\r\n        balanceRequiredForProductOwner = value;\r\n    }\r\n    \r\n    function setBalanceRequiredForReviewr(uint value) public{\r\n        balanceRequiredForReviewr = value;\r\n    }\r\n    \r\n    function setPointsPerReview(uint8 value) public{\r\n        pointsPerReview = value;\r\n    }\r\n    \r\n    function getBalanceRequiredForProductOwner() public view returns(uint){\r\n        return balanceRequiredForProductOwner;\r\n    }\r\n    \r\n    function getBalanceRequiredForReviewr() public view returns(uint){\r\n        return balanceRequiredForReviewr;\r\n    }\r\n    \r\n    function getPointsPerReview() public view returns(uint){\r\n        return pointsPerReview;\r\n    }\r\n    \r\n    function getProducts() public view returns(byte[46][] memory){\r\n        uint length=products.length;\r\n        byte[46][] memory productHash = new byte[46][](length);\r\n        for(uint i=0;i<length;i++){\r\n            byte[46] memory temp;\r\n            bytes memory product_hash_inBytes = bytes(product_hash[products[i]]);\r\n            for(uint j=0;j<46;j++){\r\n                temp[j]=product_hash_inBytes[j];\r\n            }\r\n            productHash[i]=temp;\r\n        }\r\n        return productHash;\r\n    }\r\n    \r\n    function addProductHashToLatest5(string memory _product_hash) private {\r\n        for(uint i=0;i<5;i++)\r\n            last5ProductRank[i]++;\r\n        for(uint i=0;i<5;i++){\r\n            if(last5ProductRank[i] <= 5)\r\n                continue;\r\n            bytes memory b = bytes(_product_hash);\r\n            for(uint j=0;j<46;j++)\r\n                latest5Products[i][j]=b[j];\r\n            last5ProductRank[i]=1;\r\n            break;\r\n        }\r\n    }\r\n    \r\n    function addProduct(string memory _product_name,string memory _ipfs_hash) public payable{\r\n        require(msg.value >= balanceRequiredForProductOwner,\"insufficient balance\"); // just to save network from fraud products some nominal amount\r\n        require(bytes(_ipfs_hash).length == ipfs_length,\"Invalid hash\");\r\n        products.push(_product_name);\r\n        product_hash[_product_name]=_ipfs_hash;\r\n        addProductHashToLatest5(_ipfs_hash);\r\n        totalProduct++;\r\n    }\r\n    \r\n    function deleteProduct(string memory ipfs_hash) public onlyOwner{\r\n        for(uint i=0;i<products.length;i++){\r\n            if(keccak256(bytes(products[i])) == keccak256(bytes(ipfs_hash))){\r\n                products[i]=products[products.length-1];\r\n                delete products[products.length-1];\r\n            }\r\n        }\r\n    }\r\n    \r\n    function getLatest5Products() public view returns(byte[46][5] memory){\r\n        return latest5Products;\r\n    }\r\n    \r\n    function checkIfAlreadyReviewed(string memory _product_name) public view returns(bool){\r\n        string[] memory temp=reviewerToProduct[msg.sender];\r\n        bytes memory b = bytes(_product_name);\r\n        for(uint i=0;i<temp.length;i++){\r\n            bytes memory c = bytes(temp[i]);\r\n            if(keccak256(c) == keccak256(b))\r\n                return true;\r\n        }\r\n        return false;\r\n    }\r\n    \r\n    function addReviewHashToLatest5(string memory _review_hash) private {\r\n        for(uint i=0;i<5;i++)\r\n            last5ReviewRank[i]++;\r\n        for(uint i=0;i<5;i++){\r\n            if(last5ReviewRank[i] <= 5)\r\n                continue;\r\n            bytes memory b = bytes(_review_hash);\r\n            for(uint j=0;j<46;j++)\r\n                latest5Reviews[i][j]=b[j];\r\n            last5ReviewRank[i]=1;\r\n            break;\r\n        }\r\n    }\r\n    \r\n    function addReview(string memory _product_name,string memory _reviewFile_hash,string memory _review_hash,uint _rating) public {\r\n        //balance need to check in front_end\r\n        require(bytes(_review_hash).length == ipfs_length,\"Invalid hash of review\");\r\n        require(bytes(_reviewFile_hash).length == ipfs_length,\"Invalid hash of reviewfile\");\r\n        require(bytes(product_hash[_product_name]).length > 0,\"This product does not exist\");\r\n        uint current_rating = reviewFileByProduct[_product_name].rating;\r\n        uint length=reviewsByProduct[_product_name].length;\r\n        uint updated_rating = (current_rating*length + _rating)/(length+1);\r\n        reviewFile memory temp = reviewFile(updated_rating,_reviewFile_hash);\r\n        reviewFileByProduct[_product_name]=temp;\r\n        reviewsByProduct[_product_name].push(review(msg.sender,_review_hash));\r\n        addReviewHashToLatest5(_review_hash);\r\n        points[msg.sender] += pointsPerReview;\r\n        reviewerToProduct[msg.sender].push(_product_name);\r\n        reviewerToReview[msg.sender].push(_review_hash);\r\n        totalReview++;\r\n        emit Reviewstored(\"Review stored\");\r\n    }\r\n    \r\n    function getProductReviewFile(string memory _product_name) public view returns(string memory,uint){\r\n        return (reviewFileByProduct[_product_name].reviewFile_hash,reviewFileByProduct[_product_name].rating);\r\n    }\r\n    \r\n    function getAllTheReviewsForProduct(string memory _product_name) public view returns(byte[46][] memory,address[] memory){\r\n        uint length=reviewsByProduct[_product_name].length;\r\n        byte[46][] memory reviewsOfProduct = new byte[46][](length);\r\n        address[] memory reviewers = new address[](length);\r\n        for(uint i=0;i<length;i++){\r\n            byte[46] memory temp;\r\n            bytes memory review_hash_inBytes = bytes(reviewsByProduct[_product_name][i].review_hash);\r\n            reviewers[i] = (reviewsByProduct[_product_name][i].reviewer);\r\n            for(uint j=0;j<46;j++){\r\n                temp[j]=review_hash_inBytes[j];\r\n            }\r\n            reviewsOfProduct[i]=temp;\r\n        }\r\n        return(reviewsOfProduct,reviewers);\r\n    }\r\n    \r\n    function getAllReviewsGivenByUser() public view returns(byte[46][] memory){\r\n        address sender = msg.sender;\r\n        string[] memory temp = reviewerToProduct[sender];\r\n        uint length=temp.length;\r\n        byte[46][] memory reviewsOfUser = new byte[46][](length);\r\n        for(uint i=0;i<length;i++){\r\n            bytes memory b = bytes(temp[i]);\r\n            for(uint j=0;j<46;j++)\r\n                reviewsOfUser[i][j] = b[j];\r\n        }\r\n        return reviewsOfUser;\r\n    }\r\n    \r\n    function getLatest5Reviews() public view returns(byte[46][5] memory){\r\n       return latest5Reviews; \r\n    }\r\n    \r\n    function redeemPrice() public returns(string memory){\r\n        require(points[msg.sender] >= 100,\"Insufficient funds\");\r\n        points[msg.sender] -= 100;\r\n        return(\"A coupen code\");\r\n    }\r\n}",
  "sourcePath": "H:/download/review-system/contracts/myContract.sol",
  "compiler": {
    "name": "solc",
    "version": "0.5.16+commit.9c3226ce.Emscripten.clang"
  },
  "schemaVersion": "3.3.3",
  "updatedAt": "2021-04-04T09:18:38.248Z",
  "networkType": "ethereum",
  "devdoc": {
    "methods": {}
  },
  "userdoc": {
    "methods": {}
  }
}