{
  "contractName": "MyContract",
  "abi": [
    {
      "inputs": [],
      "payable": true,
      "stateMutability": "payable",
      "type": "constructor"
    },
    {
      "anonymous": false,
      "inputs": [
        {
          "indexed": false,
          "internalType": "string",
          "name": "",
          "type": "string"
        }
      ],
      "name": "Reviewstored",
      "type": "event"
    },
    {
      "constant": true,
      "inputs": [
        {
          "internalType": "uint256",
          "name": "",
          "type": "uint256"
        }
      ],
      "name": "products",
      "outputs": [
        {
          "internalType": "string",
          "name": "",
          "type": "string"
        }
      ],
      "payable": false,
      "stateMutability": "view",
      "type": "function"
    },
    {
      "constant": false,
      "inputs": [
        {
          "internalType": "uint8",
          "name": "_length",
          "type": "uint8"
        }
      ],
      "name": "change_ipfs_length",
      "outputs": [],
      "payable": false,
      "stateMutability": "nonpayable",
      "type": "function"
    },
    {
      "constant": true,
      "inputs": [
        {
          "internalType": "uint256",
          "name": "index",
          "type": "uint256"
        }
      ],
      "name": "getProductHash",
      "outputs": [
        {
          "internalType": "string",
          "name": "",
          "type": "string"
        }
      ],
      "payable": false,
      "stateMutability": "view",
      "type": "function"
    },
    {
      "constant": true,
      "inputs": [],
      "name": "getBalance",
      "outputs": [
        {
          "internalType": "uint256",
          "name": "",
          "type": "uint256"
        }
      ],
      "payable": false,
      "stateMutability": "view",
      "type": "function"
    },
    {
      "constant": true,
      "inputs": [],
      "name": "getProductLength",
      "outputs": [
        {
          "internalType": "uint256",
          "name": "",
          "type": "uint256"
        }
      ],
      "payable": false,
      "stateMutability": "view",
      "type": "function"
    },
    {
      "constant": false,
      "inputs": [
        {
          "internalType": "uint256",
          "name": "value",
          "type": "uint256"
        }
      ],
      "name": "setBalanceRequiredForProductOwner",
      "outputs": [],
      "payable": false,
      "stateMutability": "nonpayable",
      "type": "function"
    },
    {
      "constant": false,
      "inputs": [
        {
          "internalType": "uint256",
          "name": "value",
          "type": "uint256"
        }
      ],
      "name": "setBalanceRequiredForReviewr",
      "outputs": [],
      "payable": false,
      "stateMutability": "nonpayable",
      "type": "function"
    },
    {
      "constant": false,
      "inputs": [
        {
          "internalType": "uint8",
          "name": "value",
          "type": "uint8"
        }
      ],
      "name": "setPointsPerReview",
      "outputs": [],
      "payable": false,
      "stateMutability": "nonpayable",
      "type": "function"
    },
    {
      "constant": true,
      "inputs": [],
      "name": "getBalanceRequiredForProductOwner",
      "outputs": [
        {
          "internalType": "uint256",
          "name": "",
          "type": "uint256"
        }
      ],
      "payable": false,
      "stateMutability": "view",
      "type": "function"
    },
    {
      "constant": true,
      "inputs": [],
      "name": "getBalanceRequiredForReviewr",
      "outputs": [
        {
          "internalType": "uint256",
          "name": "",
          "type": "uint256"
        }
      ],
      "payable": false,
      "stateMutability": "view",
      "type": "function"
    },
    {
      "constant": true,
      "inputs": [],
      "name": "getPointsPerReview",
      "outputs": [
        {
          "internalType": "uint256",
          "name": "",
          "type": "uint256"
        }
      ],
      "payable": false,
      "stateMutability": "view",
      "type": "function"
    },
    {
      "constant": true,
      "inputs": [],
      "name": "getProducts",
      "outputs": [
        {
          "internalType": "bytes1[46][]",
          "name": "",
          "type": "bytes1[46][]"
        }
      ],
      "payable": false,
      "stateMutability": "view",
      "type": "function"
    },
    {
      "constant": false,
      "inputs": [
        {
          "internalType": "string",
          "name": "_product_name",
          "type": "string"
        },
        {
          "internalType": "string",
          "name": "_ipfs_hash",
          "type": "string"
        }
      ],
      "name": "addProduct",
      "outputs": [],
      "payable": true,
      "stateMutability": "payable",
      "type": "function"
    },
    {
      "constant": false,
      "inputs": [
        {
          "internalType": "string",
          "name": "ipfs_hash",
          "type": "string"
        }
      ],
      "name": "deleteProduct",
      "outputs": [],
      "payable": false,
      "stateMutability": "nonpayable",
      "type": "function"
    },
    {
      "constant": true,
      "inputs": [
        {
          "internalType": "string",
          "name": "_product_name",
          "type": "string"
        }
      ],
      "name": "checkIfAlreadyReviewed",
      "outputs": [
        {
          "internalType": "bool",
          "name": "",
          "type": "bool"
        }
      ],
      "payable": false,
      "stateMutability": "view",
      "type": "function"
    },
    {
      "constant": false,
      "inputs": [
        {
          "internalType": "string",
          "name": "_product_name",
          "type": "string"
        },
        {
          "internalType": "string",
          "name": "_reviewFile_hash",
          "type": "string"
        },
        {
          "internalType": "string",
          "name": "_review_hash",
          "type": "string"
        },
        {
          "internalType": "uint256",
          "name": "_rating",
          "type": "uint256"
        }
      ],
      "name": "addReview",
      "outputs": [],
      "payable": false,
      "stateMutability": "nonpayable",
      "type": "function"
    },
    {
      "constant": true,
      "inputs": [
        {
          "internalType": "string",
          "name": "_product_name",
          "type": "string"
        }
      ],
      "name": "getProductReviewFile",
      "outputs": [
        {
          "internalType": "string",
          "name": "",
          "type": "string"
        },
        {
          "internalType": "uint256",
          "name": "",
          "type": "uint256"
        }
      ],
      "payable": false,
      "stateMutability": "view",
      "type": "function"
    },
    {
      "constant": true,
      "inputs": [
        {
          "internalType": "string",
          "name": "_product_name",
          "type": "string"
        }
      ],
      "name": "getAllTheReviewsForProduct",
      "outputs": [
        {
          "internalType": "bytes1[46][]",
          "name": "",
          "type": "bytes1[46][]"
        },
        {
          "internalType": "address[]",
          "name": "",
          "type": "address[]"
        }
      ],
      "payable": false,
      "stateMutability": "view",
      "type": "function"
    },
    {
      "constant": false,
      "inputs": [],
      "name": "redeemPrice",
      "outputs": [
        {
          "internalType": "string",
          "name": "",
          "type": "string"
        }
      ],
      "payable": false,
      "stateMutability": "nonpayable",
      "type": "function"
    }
  ],
  "bytecode": "0x6080604052602e60065533600260006101000a81548173ffffffffffffffffffffffffffffffffffffffff021916908373ffffffffffffffffffffffffffffffffffffffff1602179055506125bc806100596000396000f3fe6080604052600436106101125760003560e01c806372139d9a116100a0578063c29b2f2011610064578063c29b2f20146109a0578063ca2efb5514610a2d578063d563f05f14610b7f578063f2d6181914610bba578063f5a2cd8c14610be557610112565b806372139d9a146106b55780637a233fb31461077d5780637acc0b201461080d5780639d58f0da146108c15780639dc1c1141461097557610112565b806314a1a4d2116100e757806314a1a4d2146103ab578063360d5c1c146103e95780633cf35bb2146104145780634c2306bc1461059a578063654c32de1461067a57610112565b8062f63ce214610117578062ff35c51461014257806312065fe01461018057806314518e19146101ab575b600080fd5b34801561012357600080fd5b5061012c610d2d565b6040518082815260200191505060405180910390f35b34801561014e57600080fd5b5061017e6004803603602081101561016557600080fd5b81019080803560ff169060200190929190505050610d47565b005b34801561018c57600080fd5b50610195610d54565b6040518082815260200191505060405180910390f35b3480156101b757600080fd5b506103a9600480360360808110156101ce57600080fd5b81019080803590602001906401000000008111156101eb57600080fd5b8201836020820111156101fd57600080fd5b8035906020019184600183028401116401000000008311171561021f57600080fd5b91908080601f016020809104026020016040519081016040528093929190818152602001838380828437600081840152601f19601f8201169050808301925050505050505091929192908035906020019064010000000081111561028257600080fd5b82018360208201111561029457600080fd5b803590602001918460018302840111640100000000831117156102b657600080fd5b91908080601f016020809104026020016040519081016040528093929190818152602001838380828437600081840152601f19601f8201169050808301925050505050505091929192908035906020019064010000000081111561031957600080fd5b82018360208201111561032b57600080fd5b8035906020019184600183028401116401000000008311171561034d57600080fd5b91908080601f016020809104026020016040519081016040528093929190818152602001838380828437600081840152601f19601f82011690508083019250505050505050919291929080359060200190929190505050610d5c565b005b3480156103b757600080fd5b506103e7600480360360208110156103ce57600080fd5b81019080803560ff16906020019092919050505061135c565b005b3480156103f557600080fd5b506103fe61137a565b6040518082815260200191505060405180910390f35b34801561042057600080fd5b506104da6004803603602081101561043757600080fd5b810190808035906020019064010000000081111561045457600080fd5b82018360208201111561046657600080fd5b8035906020019184600183028401116401000000008311171561048857600080fd5b91908080601f016020809104026020016040519081016040528093929190818152602001838380828437600081840152601f19601f820116905080830192505050505050509192919290505050611384565b6040518080602001806020018381038352858181518152602001915080516000925b818410156105455782846020026020010151602e60200280838360005b83811015610534578082015181840152602081019050610519565b5050505090500192600101926104fc565b92505050838103825284818151815260200191508051906020019060200280838360005b83811015610584578082015181840152602081019050610569565b5050505090500194505050505060405180910390f35b3480156105a657600080fd5b50610660600480360360208110156105bd57600080fd5b81019080803590602001906401000000008111156105da57600080fd5b8201836020820111156105ec57600080fd5b8035906020019184600183028401116401000000008311171561060e57600080fd5b91908080601f016020809104026020016040519081016040528093929190818152602001838380828437600081840152601f19601f820116905080830192505050505050509192919290505050611754565b604051808215151515815260200191505060405180910390f35b34801561068657600080fd5b506106b36004803603602081101561069d57600080fd5b81019080803590602001909291905050506118e3565b005b3480156106c157600080fd5b5061077b600480360360208110156106d857600080fd5b81019080803590602001906401000000008111156106f557600080fd5b82018360208201111561070757600080fd5b8035906020019184600183028401116401000000008311171561072957600080fd5b91908080601f016020809104026020016040519081016040528093929190818152602001838380828437600081840152601f19601f8201169050808301925050505050505091929192905050506118ed565b005b34801561078957600080fd5b50610792611a7a565b6040518080602001828103825283818151815260200191508051906020019080838360005b838110156107d25780820151818401526020810190506107b7565b50505050905090810190601f1680156107ff5780820380516001836020036101000a031916815260200191505b509250505060405180910390f35b34801561081957600080fd5b506108466004803603602081101561083057600080fd5b8101908080359060200190929190505050611bbb565b6040518080602001828103825283818151815260200191508051906020019080838360005b8381101561088657808201518184015260208101905061086b565b50505050905090810190601f1680156108b35780820380516001836020036101000a031916815260200191505b509250505060405180910390f35b3480156108cd57600080fd5b506108fa600480360360208110156108e457600080fd5b8101908080359060200190929190505050611c74565b6040518080602001828103825283818151815260200191508051906020019080838360005b8381101561093a57808201518184015260208101905061091f565b50505050905090810190601f1680156109675780820380516001836020036101000a031916815260200191505b509250505060405180910390f35b34801561098157600080fd5b5061098a611d9d565b6040518082815260200191505060405180910390f35b3480156109ac57600080fd5b506109b5611da7565b60405180806020018281038252838181518152602001915080516000925b81841015610a1c5782846020026020010151602e60200280838360005b83811015610a0b5780820151818401526020810190506109f0565b5050505090500192600101926109d3565b925050509250505060405180910390f35b610b7d60048036036040811015610a4357600080fd5b8101908080359060200190640100000000811115610a6057600080fd5b820183602082011115610a7257600080fd5b80359060200191846001830284011164010000000083111715610a9457600080fd5b91908080601f016020809104026020016040519081016040528093929190818152602001838380828437600081840152601f19601f82011690508083019250505050505050919291929080359060200190640100000000811115610af757600080fd5b820183602082011115610b0957600080fd5b80359060200191846001830284011164010000000083111715610b2b57600080fd5b91908080601f016020809104026020016040519081016040528093929190818152602001838380828437600081840152601f19601f820116905080830192505050505050509192919290505050611fea565b005b348015610b8b57600080fd5b50610bb860048036036020811015610ba257600080fd5b810190808035906020019092919050505061219b565b005b348015610bc657600080fd5b50610bcf6121a5565b6040518082815260200191505060405180910390f35b348015610bf157600080fd5b50610cab60048036036020811015610c0857600080fd5b8101908080359060200190640100000000811115610c2557600080fd5b820183602082011115610c3757600080fd5b80359060200191846001830284011164010000000083111715610c5957600080fd5b91908080601f016020809104026020016040519081016040528093929190818152602001838380828437600081840152601f19601f8201169050808301925050505050505091929192905050506121b1565b6040518080602001838152602001828103825284818151815260200191508051906020019080838360005b83811015610cf1578082015181840152602081019050610cd6565b50505050905090810190601f168015610d1e5780820380516001836020036101000a031916815260200191505b50935050505060405180910390f35b6000600a60009054906101000a900460ff1660ff16905090565b8060ff1660068190555050565b600047905090565b600654825114610dd4576040517f08c379a00000000000000000000000000000000000000000000000000000000081526004018080602001828103825260168152602001807f496e76616c69642068617368206f66207265766965770000000000000000000081525060200191505060405180910390fd5b600654835114610e4c576040517f08c379a000000000000000000000000000000000000000000000000000000000815260040180806020018281038252601a8152602001807f496e76616c69642068617368206f662072657669657766696c6500000000000081525060200191505060405180910390fd5b60006001856040518082805190602001908083835b60208310610e845780518252602082019150602081019050602083039250610e61565b6001836020036101000a038019825116818451168082178552505050505050905001915050908152602001604051809103902080546001816001161561010002031660029004905011610f3f576040517f08c379a000000000000000000000000000000000000000000000000000000000815260040180806020018281038252601b8152602001807f546869732070726f6475637420646f6573206e6f74206578697374000000000081525060200191505060405180910390fd5b60006003856040518082805190602001908083835b60208310610f775780518252602082019150602081019050602083039250610f54565b6001836020036101000a038019825116818451168082178552505050505050905001915050908152602001604051809103902060000154905060006004866040518082805190602001908083835b60208310610fe85780518252602082019150602081019050602083039250610fc5565b6001836020036101000a038019825116818451168082178552505050505050905001915050908152602001604051809103902080549050905060006001820184838502018161103357fe5b04905061103e612333565b6040518060400160405280838152602001888152509050806003896040518082805190602001908083835b6020831061108c5780518252602082019150602081019050602083039250611069565b6001836020036101000a03801982511681845116808217855250505050505090500191505090815260200160405180910390206000820151816000015560208201518160010190805190602001906110e592919061234d565b509050506004886040518082805190602001908083835b6020831061111f57805182526020820191506020810190506020830392506110fc565b6001836020036101000a038019825116818451168082178552505050505050905001915050908152602001604051809103902060405180604001604052803373ffffffffffffffffffffffffffffffffffffffff168152602001888152509080600181540180825580915050906001820390600052602060002090600202016000909192909190915060008201518160000160006101000a81548173ffffffffffffffffffffffffffffffffffffffff021916908373ffffffffffffffffffffffffffffffffffffffff160217905550602082015181600101908051906020019061120b92919061234d565b50505050600a60009054906101000a900460ff1660ff16600760003373ffffffffffffffffffffffffffffffffffffffff1673ffffffffffffffffffffffffffffffffffffffff16815260200190815260200160002060008282540192505081905550600560003373ffffffffffffffffffffffffffffffffffffffff1673ffffffffffffffffffffffffffffffffffffffff1681526020019081526020016000208890806001815401808255809150509060018203906000526020600020016000909192909190915090805190602001906112e89291906123cd565b50507f400a3c026abff6f11f172c1b3358732ecff69730d7bf75ab5713feba40ea333460405180806020018281038252600d8152602001807f5265766965772073746f7265640000000000000000000000000000000000000081525060200191505060405180910390a15050505050505050565b80600a60006101000a81548160ff021916908360ff16021790555050565b6000600954905090565b60608060006004846040518082805190602001908083835b602083106113bf578051825260208201915060208101905060208303925061139c565b6001836020036101000a038019825116818451168082178552505050505050905001915050908152602001604051809103902080549050905060608160405190808252806020026020018201604052801561143457816020015b61142161244d565b8152602001906001900390816114195790505b5090506060826040519080825280602002602001820160405280156114685781602001602082028038833980820191505090505b50905060008090505b8381101561174557611481612470565b60606004896040518082805190602001908083835b602083106114b95780518252602082019150602081019050602083039250611496565b6001836020036101000a038019825116818451168082178552505050505050905001915050908152602001604051809103902083815481106114f757fe5b90600052602060002090600202016001018054600181600116156101000203166002900480601f01602080910402602001604051908101604052809291908181526020018280546001816001161561010002031660029004801561159c5780601f106115715761010080835404028352916020019161159c565b820191906000526020600020905b81548152906001019060200180831161157f57829003601f168201915b505050505090506004896040518082805190602001908083835b602083106115d957805182526020820191506020810190506020830392506115b6565b6001836020036101000a0380198251168184511680821785525050505050509050019150509081526020016040518091039020838154811061161757fe5b906000526020600020906002020160000160009054906101000a900473ffffffffffffffffffffffffffffffffffffffff1684848151811061165557fe5b602002602001019073ffffffffffffffffffffffffffffffffffffffff16908173ffffffffffffffffffffffffffffffffffffffff168152505060008090505b602e81101561171d578181815181106116aa57fe5b602001015160f81c60f81b8382602e81106116c157fe5b60200201907effffffffffffffffffffffffffffffffffffffffffffffffffffffffffffff191690817effffffffffffffffffffffffffffffffffffffffffffffffffffffffffffff1916815250508080600101915050611695565b508185848151811061172b57fe5b602002602001018190525050508080600101915050611471565b50818194509450505050915091565b60006060600560003373ffffffffffffffffffffffffffffffffffffffff1673ffffffffffffffffffffffffffffffffffffffff168152602001908152602001600020805480602002602001604051908101604052809291908181526020016000905b82821015611873578382906000526020600020018054600181600116156101000203166002900480601f01602080910402602001604051908101604052809291908181526020018280546001816001161561010002031660029004801561185f5780601f106118345761010080835404028352916020019161185f565b820191906000526020600020905b81548152906001019060200180831161184257829003601f168201915b5050505050815260200190600101906117b7565b505050509050606083905060008090505b82518110156118d657606083828151811061189b57fe5b602002602001015190508280519060200120818051906020012014156118c85760019450505050506118de565b508080600101915050611884565b506000925050505b919050565b8060088190555050565b600260009054906101000a900473ffffffffffffffffffffffffffffffffffffffff1673ffffffffffffffffffffffffffffffffffffffff163373ffffffffffffffffffffffffffffffffffffffff161461194757600080fd5b60008090505b600080549050811015611a765781805190602001206000828154811061196f57fe5b9060005260206000200160405180828054600181600116156101000203166002900480156119d45780601f106119b25761010080835404028352918201916119d4565b820191906000526020600020905b8154815290600101906020018083116119c0575b505091505060405180910390201415611a69576000600160008054905003815481106119fc57fe5b9060005260206000200160008281548110611a1357fe5b906000526020600020019080546001816001161561010002031660029004611a3c929190612493565b50600060016000805490500381548110611a5257fe5b906000526020600020016000611a68919061251a565b5b808060010191505061194d565b5050565b60606064600760003373ffffffffffffffffffffffffffffffffffffffff1673ffffffffffffffffffffffffffffffffffffffff168152602001908152602001600020541015611b32576040517f08c379a00000000000000000000000000000000000000000000000000000000081526004018080602001828103825260128152602001807f496e73756666696369656e742066756e6473000000000000000000000000000081525060200191505060405180910390fd5b6064600760003373ffffffffffffffffffffffffffffffffffffffff1673ffffffffffffffffffffffffffffffffffffffff168152602001908152602001600020600082825403925050819055506040518060400160405280600d81526020017f4120636f7570656e20636f646500000000000000000000000000000000000000815250905090565b60008181548110611bc857fe5b906000526020600020016000915090508054600181600116156101000203166002900480601f016020809104026020016040519081016040528092919081815260200182805460018160011615610100020316600290048015611c6c5780601f10611c4157610100808354040283529160200191611c6c565b820191906000526020600020905b815481529060010190602001808311611c4f57829003601f168201915b505050505081565b6060600160008381548110611c8557fe5b906000526020600020016040518082805460018160011615610100020316600290048015611cea5780601f10611cc8576101008083540402835291820191611cea565b820191906000526020600020905b815481529060010190602001808311611cd6575b505091505090815260200160405180910390208054600181600116156101000203166002900480601f016020809104026020016040519081016040528092919081815260200182805460018160011615610100020316600290048015611d915780601f10611d6657610100808354040283529160200191611d91565b820191906000526020600020905b815481529060010190602001808311611d7457829003601f168201915b50505050509050919050565b6000600854905090565b6060600080805490509050606081604051908082528060200260200182016040528015611dee57816020015b611ddb61244d565b815260200190600190039081611dd35790505b50905060008090505b82811015611fe157611e07612470565b6060600160008481548110611e1857fe5b906000526020600020016040518082805460018160011615610100020316600290048015611e7d5780601f10611e5b576101008083540402835291820191611e7d565b820191906000526020600020905b815481529060010190602001808311611e69575b505091505090815260200160405180910390208054600181600116156101000203166002900480601f016020809104026020016040519081016040528092919081815260200182805460018160011615610100020316600290048015611f245780601f10611ef957610100808354040283529160200191611f24565b820191906000526020600020905b815481529060010190602001808311611f0757829003601f168201915b5050505050905060008090505b602e811015611fb957818181518110611f4657fe5b602001015160f81c60f81b8382602e8110611f5d57fe5b60200201907effffffffffffffffffffffffffffffffffffffffffffffffffffffffffffff191690817effffffffffffffffffffffffffffffffffffffffffffffffffffffffffffff1916815250508080600101915050611f31565b5081848481518110611fc757fe5b602002602001018190525050508080600101915050611df7565b50809250505090565b600854341015612062576040517f08c379a00000000000000000000000000000000000000000000000000000000081526004018080602001828103825260148152602001807f696e73756666696369656e742062616c616e636500000000000000000000000081525060200191505060405180910390fd5b6006548151146120da576040517f08c379a000000000000000000000000000000000000000000000000000000000815260040180806020018281038252600c8152602001807f496e76616c69642068617368000000000000000000000000000000000000000081525060200191505060405180910390fd5b60008290806001815401808255809150509060018203906000526020600020016000909192909190915090805190602001906121179291906123cd565b5050806001836040518082805190602001908083835b60208310612150578051825260208201915060208101905060208303925061212d565b6001836020036101000a038019825116818451168082178552505050505050905001915050908152602001604051809103902090805190602001906121969291906123cd565b505050565b8060098190555050565b60008080549050905090565b606060006003836040518082805190602001908083835b602083106121eb57805182526020820191506020810190506020830392506121c8565b6001836020036101000a03801982511681845116808217855250505050505090500191505090815260200160405180910390206001016003846040518082805190602001908083835b602083106122575780518252602082019150602081019050602083039250612234565b6001836020036101000a038019825116818451168082178552505050505050905001915050908152602001604051809103902060000154818054600181600116156101000203166002900480601f0160208091040260200160405190810160405280929190818152602001828054600181600116156101000203166002900480156123235780601f106122f857610100808354040283529160200191612323565b820191906000526020600020905b81548152906001019060200180831161230657829003601f168201915b5050505050915091509150915091565b604051806040016040528060008152602001606081525090565b828054600181600116156101000203166002900490600052602060002090601f016020900481019282601f1061238e57805160ff19168380011785556123bc565b828001600101855582156123bc579182015b828111156123bb5782518255916020019190600101906123a0565b5b5090506123c99190612562565b5090565b828054600181600116156101000203166002900490600052602060002090601f016020900481019282601f1061240e57805160ff191683800117855561243c565b8280016001018555821561243c579182015b8281111561243b578251825591602001919060010190612420565b5b5090506124499190612562565b5090565b604051806105c00160405280602e90602082028038833980820191505090505090565b604051806105c00160405280602e90602082028038833980820191505090505090565b828054600181600116156101000203166002900490600052602060002090601f016020900481019282601f106124cc5780548555612509565b8280016001018555821561250957600052602060002091601f016020900482015b828111156125085782548255916001019190600101906124ed565b5b5090506125169190612562565b5090565b50805460018160011615610100020316600290046000825580601f10612540575061255f565b601f01602090049060005260206000209081019061255e9190612562565b5b50565b61258491905b80821115612580576000816000905550600101612568565b5090565b9056fea265627a7a72315820544f9343c54a6add64df868302c50520c23611c20e6ac873a254e87a89810cd464736f6c63430005100032",
  "source": "pragma solidity ^0.5.16;\r\ncontract MyContract{\r\n    \r\n    struct reviewFile{\r\n        uint rating;\r\n        string reviewFile_hash;\r\n    }\r\n    \r\n    struct review{\r\n        address reviewer;\r\n        string review_hash;\r\n    }\r\n    \r\n    string[] public products; //stores name of product in array\r\n    mapping(string => string) product_hash;\r\n    address payable owner;\r\n    mapping(string => reviewFile) reviewFileByProduct; //mapping from product to review\r\n    mapping(string => review[]) reviewsByProduct; //mapping from product to user to review\r\n    mapping(address => string[]) reviewerToProduct;\r\n    uint ipfs_length=46;\r\n    mapping(address => uint) points;\r\n    uint balanceRequiredForProductOwner;\r\n    uint balanceRequiredForReviewr;\r\n    uint8 pointsPerReview;\r\n    \r\n    event Reviewstored(string);\r\n    // event check_ij(uint,uint);\r\n    \r\n    modifier onlyOwner{\r\n        require(msg.sender == owner);// Only allow owner to delete a product\r\n        _;\r\n    }\r\n    \r\n    constructor() payable public{\r\n       owner = msg.sender;\r\n    }\r\n    \r\n    function change_ipfs_length(uint8 _length) public {\r\n        ipfs_length=_length;\r\n    }\r\n    \r\n    function getProductHash(uint index) public view returns(string memory){\r\n        return product_hash[products[index]];\r\n    }\r\n    \r\n    function getBalance() public view returns(uint){\r\n        return address(this).balance;\r\n    }\r\n    \r\n    function getProductLength() public view returns(uint){\r\n        return products.length;\r\n    }\r\n    \r\n    function setBalanceRequiredForProductOwner(uint value) public{\r\n        balanceRequiredForProductOwner = value;\r\n    }\r\n    \r\n    function setBalanceRequiredForReviewr(uint value) public{\r\n        balanceRequiredForReviewr = value;\r\n    }\r\n    \r\n    function setPointsPerReview(uint8 value) public{\r\n        pointsPerReview = value;\r\n    }\r\n    \r\n    function getBalanceRequiredForProductOwner() public view returns(uint){\r\n        return balanceRequiredForProductOwner;\r\n    }\r\n    \r\n    function getBalanceRequiredForReviewr() public view returns(uint){\r\n        return balanceRequiredForReviewr;\r\n    }\r\n    \r\n    function getPointsPerReview() public view returns(uint){\r\n        return pointsPerReview;\r\n    }\r\n    \r\n    function getProducts() public view returns(byte[46][] memory){\r\n        uint length=products.length;\r\n        byte[46][] memory productHash = new byte[46][](length);\r\n        for(uint i=0;i<length;i++){\r\n            byte[46] memory temp;\r\n            bytes memory product_hash_inBytes = bytes(product_hash[products[i]]);\r\n            for(uint j=0;j<46;j++){\r\n                temp[j]=product_hash_inBytes[j];\r\n            }\r\n            productHash[i]=temp;\r\n        }\r\n        return productHash;\r\n    }\r\n    \r\n    function addProduct(string memory _product_name,string memory _ipfs_hash) public payable{\r\n        require(msg.value >= balanceRequiredForProductOwner,\"insufficient balance\"); // just to save network from fraud products some nominal amount\r\n        require(bytes(_ipfs_hash).length == ipfs_length,\"Invalid hash\");\r\n        products.push(_product_name);\r\n        product_hash[_product_name]=_ipfs_hash;\r\n    }\r\n    \r\n    function deleteProduct(string memory ipfs_hash) public onlyOwner{\r\n        for(uint i=0;i<products.length;i++){\r\n            if(keccak256(bytes(products[i])) == keccak256(bytes(ipfs_hash))){\r\n                products[i]=products[products.length-1];\r\n                delete products[products.length-1];\r\n            }\r\n        }\r\n    }\r\n    \r\n    function checkIfAlreadyReviewed(string memory _product_name) public view returns(bool){\r\n        string[] memory temp=reviewerToProduct[msg.sender];\r\n        bytes memory b = bytes(_product_name);\r\n        for(uint i=0;i<temp.length;i++){\r\n            bytes memory c = bytes(temp[i]);\r\n            if(keccak256(c) == keccak256(b))\r\n                return true;\r\n        }\r\n        return false;\r\n    }\r\n    \r\n    function addReview(string memory _product_name,string memory _reviewFile_hash,string memory _review_hash,uint _rating) public {\r\n        //balance need to check in front_end\r\n        require(bytes(_review_hash).length == ipfs_length,\"Invalid hash of review\");\r\n        require(bytes(_reviewFile_hash).length == ipfs_length,\"Invalid hash of reviewfile\");\r\n        require(bytes(product_hash[_product_name]).length > 0,\"This product does not exist\");\r\n        uint current_rating = reviewFileByProduct[_product_name].rating;\r\n        uint length=reviewsByProduct[_product_name].length;\r\n        uint updated_rating = (current_rating*length + _rating)/(length+1);\r\n        reviewFile memory temp = reviewFile(updated_rating,_reviewFile_hash);\r\n        reviewFileByProduct[_product_name]=temp;\r\n        reviewsByProduct[_product_name].push(review(msg.sender,_review_hash));\r\n        points[msg.sender] += pointsPerReview;\r\n        reviewerToProduct[msg.sender].push(_product_name);\r\n        emit Reviewstored(\"Review stored\");\r\n    }\r\n    \r\n    \r\n    function getProductReviewFile(string memory _product_name) public view returns(string memory,uint){\r\n        return (reviewFileByProduct[_product_name].reviewFile_hash,reviewFileByProduct[_product_name].rating);\r\n    }\r\n    \r\n    function getAllTheReviewsForProduct(string memory _product_name) public view returns(byte[46][] memory,address[] memory){\r\n        uint length=reviewsByProduct[_product_name].length;\r\n        byte[46][] memory reviewsOfProduct = new byte[46][](length);\r\n        address[] memory reviewers = new address[](length);\r\n        for(uint i=0;i<length;i++){\r\n            byte[46] memory temp;\r\n            bytes memory review_hash_inBytes = bytes(reviewsByProduct[_product_name][i].review_hash);\r\n            reviewers[i] = (reviewsByProduct[_product_name][i].reviewer);\r\n            for(uint j=0;j<46;j++){\r\n                temp[j]=review_hash_inBytes[j];\r\n            }\r\n            reviewsOfProduct[i]=temp;\r\n        }\r\n        return(reviewsOfProduct,reviewers);\r\n    }\r\n    \r\n    function redeemPrice() public returns(string memory){\r\n        require(points[msg.sender] >= 100,\"Insufficient funds\");\r\n        points[msg.sender] -= 100;\r\n        return(\"A coupen code\");\r\n    }\r\n}",
  "sourcePath": "H:/download/review-system/contracts/myContract.sol",
  "compiler": {
    "name": "solc",
    "version": "0.5.16+commit.9c3226ce.Emscripten.clang"
  },
  "schemaVersion": "3.3.3",
  "updatedAt": "2021-02-09T15:56:41.897Z",
  "networkType": "ethereum",
  "devdoc": {
    "methods": {}
  },
  "userdoc": {
    "methods": {}
  }
}